:020000040800F2
:10000000D86B0120492C00080104000803040008F3
:10001000070400080B0400080F040008000000009B
:10002000000000000000000000000000C102000805
:1000300013040008000000001D030008AD2A00089A
:10004000632C0008632C0008632C0008632C000854
:10005000632C0008632C0008632C0008632C000844
:1000600015040008632C0008632C0008632C0008AA
:10007000632C0008632C0008632C0008632C000824
:10008000632C0008632C0008632C00087B05000823
:10009000FD040008632C0008632C00080BC800084E
:1000A000632C0008632C0008632C0008632C0008F4
:1000B00091050008DB250008EB0B0008632C000805
:1000C000632C0008632C0008632C0008632C0008D4
:1000D000632C000825040008632C0008AF05000805
:1000E000632C0008632C0008632C0008632C0008B4
:1000F000632C0008632C0008632C0008632C0008A4
:10010000632C0008632C0008632C0008632C000893
:10011000632C0008632C0008632C0008632C000883
:10012000632C000821290008632C0008632C0008B8
:10013000632C0008632C0008632C00086505000888
:1001400031050008632C0008632C0008632C0008AC
:100150002BC8000873290008632C00081529000823
:10016000632C0008632C0008632C0008632C000833
:10017000632C0008632C0008632C0008632C000823
:10018000632C0008632C0008632C0008632C000813
:10019000632C0008632C0008632C0008632C000803
:1001A0000000000000000000632C000800F002F8CE
:1001B00000F076F80AA090E8000C82448344AAF18B
:1001C0000107DA4501D100F06BF8AFF2090EBAE889
:1001D0000F0013F0010F18BFFB1A43F0010318477B
:1001E0009C450100BC4501000A444FF0000C10F88A
:1001F000013B13F0070408BF10F8014B1D1108BFA5
:1002000010F8015B641E05D010F8016B641E01F844
:10021000016BF9D113F0080F1EBF10F8014BAD1C94
:100220000C1B09D16D1E58BF01F801CBFAD505E0B2
:1002300014F8016B01F8016B6D1EF9D59142D6D30C
:10024000704700000023002400250026103A28BF34
:1002500078C1FBD8520728BF30C148BF0B60704738
:10026000662913F06583642910F08881752910F0E0
:100270008581632910F0BF85002070471FB513F0FA
:100280009FFA9DE8030010F0BFFA10F0F9FD04009A
:100290000020002112F06CFDE0601FBD10B510BD04
:1002A00010F02DFF1146FFF7E9FF00F0A0F810F065
:1002B0004BFF03B4FFF7F2FF03BC02F06DFC00003C
:1002C0002C4B19680868B0E8F04F80F30988BFF339
:1002D0006F8F4FF0000080F311887047000000001E
:1002E00008480068006880F308884FF0000080F339
:1002F000148862B661B6BFF34F8FBFF36F8F00DF14
:1003000000BF00BF08ED00E0DFF80C00016841F419
:1003100070010160704700BF88ED00E0EFF30980D5
:10032000BFF36F8F134B1A681EF0100F08BF20ED3C
:10033000108A20E9F04F106009B44FF0500080F3AC
:100340001188BFF34F8FBFF36F8F08F0EBF84FF0BA
:10035000000080F3118809BC19680868B0E8F04F04
:100360001EF0100F08BFB0EC108A80F30988BFF3AD
:100370006F8F704764000020EFF305807047000026
:1003800010B54FF4407002F07FFCB42002F096FBF1
:1003900000F06DFB5A2147F2305001F039FB00F0BC
:1003A00051FE4FF4E13002F00BFC00F0F5FF01F0DC
:1003B000C1F902F075F902F0CEF902F00DFA00F081
:1003C000EBFF01F0ACFA02F02EF9002408E0204621
:1003D00002F04AF940F2C52002F08DFB601CC4B265
:1003E000042CF4DB00F080FC0AF006F810BDFFF7E7
:1003F000C7FF0CF06AFC08F057FA00BFFEE70000E8
:10040000704700BFFEE700BFFEE700BFFEE700BF8A
:10041000FEE7704710B5042005F0EAFE042005F061
:10042000F2FE10BD10B540F225519B4803F040FB91
:1004300018B1994803F07AFA5FE040F224419648F7
:1004400003F036FB002858D0934803F06FFA934826
:1004500004F08FF940BB0021904804F047F98F4821
:1004600004F067F9C0F124008D49088024218B48ED
:1004700004F05DF98948006840F40020874908606D
:100480008849864804F0ABF90121844804F02EF92C
:1004900083480088122830D18349844800F002FD47
:1004A00000200AF018FB28E000217C4804F01EF927
:1004B0007A4804F03EF9C0F12400794908802421EB
:1004C000764804F034F97548006820F40020734938
:1004D00008607449714804F082F901216F4804F002
:1004E00005F96F480088122807D16F496F482430FA
:1004F00000F0D8FC00200AF0EEFA10BD00B585B07F
:1005000002216B4803F028FF80B10221684803F004
:10051000BEFF6849664803F0FCFE6A460021644855
:1005200003F097FD6946624800F09DFF05B000BDED
:1005300000B585B00221604803F00EFF80B10221B2
:100540005D4803F0A4FF5B495B4803F0E2FE6A46A6
:100550000021594803F07DFD6946574800F083FFAC
:1005600005B000BD10B50121534803F0F5FE18B1E8
:100570000121514803F08BFF10BD10B501214C48FB
:1005800003F0EAFE18B10121494803F080FF10BDD5
:1005900010B50121880704F006FF38B10121880752
:1005A00004F012FF0121880704F0FAFE10BD10B517
:1005B00040F22551414803F07BFA18B13F4803F05F
:1005C000B5F967E040F224413C4803F071FA002895
:1005D00060D03A4803F0AAF9394804F0CAF860BB81
:1005E0000021374804F082F8354804F0A2F8C0F141
:1005F0006400344908806421314804F098F8304898
:100600002838806A40F400202D49283988622E4914
:100610002B4804F0E4F80121294804F067F8294840
:100620000088082803D129480CF02DFD32E0284825
:100630000088401C264908802CE00021204804F056
:1006400055F81F4804F075F8C0F164001D49088092
:1006500064211B4804F06BF819482838806A40F47C
:1006600000201749283988621749154804F0B7F85F
:100670000121134804F03AF812480088082804D1F0
:10068000124864300CF0FFFC04E011480088401C64
:100690000F49088000BF10BD0010014040640240B7
:1006A0000200002000003010CC0200208402002054
:1006B000006400400800003200680040004800402C
:1006C0002860024004000020000C00104C5E012055
:1006D000000000200CB500200190009083480068C5
:1006E00040F480308149086000BF8048006800F411
:1006F000003000900198401C0190009818B90198B2
:10070000B0F5A04FF1D17948006800F4003010B185
:100710000120009001E0002000900098012860D1A5
:1007200072484030006840F08050704940310860A5
:100730006F48006840F440406D4908606B480830DD
:1007400000686A49083108600846006840F40040C3
:1007500008600846006840F4A05008606548091F1A
:100760000860081F006840F08070091F086000BF23
:100770005E48006800F000700028F9D05C4800680E
:1007800040F480305A49086000BF5948406800F47E
:1007900080300028F9D05648006840F400305449B1
:1007A000086000BF5248406800F400300028F9D0CB
:1007B00040F20570504908604C480830006820F04D
:1007C00003004A49083108600846006840F002000A
:1007D000086000BF45480830006800F00C00082899
:1007E000F8D10CBD10B54548006840F4700043498D
:1007F00008603E48006840F001003C490860002065
:100800003A4908310860394800683D49084037498D
:1008100008603C48091D0860081F006820F480201B
:10082000091F0860002031490C310860FFF752FFB2
:100830004FF0006031498039086010BD70B500206C
:100840000022022300240221284D08352D6805F0DE
:100850000C0020B1042806D0082834D107E02A4D26
:100860002A4E356033E02A4D284E35602FE01F4D6B
:100870002D1D2D68C5F380541C4D2D1D2D6805F0D0
:100880003F0154B1224DB5FBF1F5184E361D3668C7
:10089000C6F3881605FB06F209E01B4DB5FBF1F522
:1008A000124E361D3668C6F3881605FB06F20F4D4C
:1008B0002D1D2D68C5F301456D1C6B00B2FBF3F5D2
:1008C000124E356003E0104D104E356000BF00BF82
:1008D000064D08352D68C5F303150E4E705D0B4DA2
:1008E0002D68C540094E356070BD000000380240DB
:1008F000007000400C5A4007003C024088ED00E0C8
:10090000FFFFF6FE103000240024F4000800002051
:10091000001BB7000C0000201CB50121702002F064
:100920004AFD4FF40060009001208DF80400002083
:100930008DF8060003208DF8050001208DF80700D2
:100940006946E14802F096FA4FF48040009069460B
:10095000DE4802F08FFA1E2000906946DC4802F063
:1009600089FA4FF4F07000906946D94802F082FA93
:100970004FF48041D54802F0F9FA4FF40061D248B3
:1009800002F0F4FA1E21D24802F0F0FA4FF4F071AE
:10099000CF4802F0EBFA1CBD00B585B00121022062
:1009A00002F009FD0121880302F05DFD042003909F
:1009B00000208DF8100003208DF8110001208DF823
:1009C000130003A9C34802F055FA0221012002F0E6
:1009D00056FE0420009000208DF804000C208DF8B5
:1009E000050001208DF80600684605F09BFB0820F5
:1009F0008DF8080006208DF8090000208DF80A0007
:100A000001208DF80B0002A802F043F905B000BDEB
:100A10001CB50121402002F0CEFC4FF400500090A4
:100A200001208DF8040000208DF8060003208DF8C9
:100A3000050001208DF807006946A54802F01AFA62
:100A40001CBD1CB50121080202F0B5FC012000907C
:100A500000208DF8040001208DF8070003208DF898
:100A6000050069469C4802F005FA1CBD704710B5A8
:100A7000FFF752FFFFF790FFFFF7CAFFFFF7E1FF15
:100A800010BD10B540F6B8309449086040F6E660F5
:100A9000924908390860962007F00BFC40F649504F
:100AA0008E4908390860962007F003FC40F6D630DE
:100AB0008A4908390860962007F0FBFB0020874927
:100AC000086010BD10B540F6B8308449086040F6A3
:100AD000D630824908390860962007F0EAFB40F6D4
:100AE00049507E4908390860962007F0E2FB40F63D
:100AF000E6607A4908390860962007F0DAFB0020A2
:100B00007649086010BD10B540F6B83073490860EA
:100B100040F6E660714908390860962007F0C9FB85
:100B200040F649506D4908390860962007F0C1FB2E
:100B300040F6D630694908390860962007F0B9FBBD
:100B400000206649086010BD10B540F6B830634912
:100B5000086040F6E660614908390860962007F0B1
:100B6000A8FB40F6E6605D4908390860962007F06A
:100B7000A0FB40F64950594908390860962007F013
:100B800098FB00205549086010BD1FB501210420C5
:100B900002F058FC312002905920ADF804000020EA
:100BA000ADF80C00ADF8060001214D4803F0AEFF92
:100BB00001A94B4803F03FFF0121494803F0C4FF5E
:100BC00001221146464804F0D7FB1E208DF8000094
:100BD00004208DF8010000208DF8020001208DF81E
:100BE0000300684602F055F81FBD10B501213C48CE
:100BF00004F0D9FB012804D13A480068401C394967
:100C000008600121364804F0DFFB10BD10B500205C
:100C100034490860FFF7B9FF10BD10B54FF48041AB
:100C20002A4802F0A3F910BD10B54FF480412748BF
:100C300002F09EF910BD10B54FF48041234802F038
:100C4000A0F910BD10B54FF400611F4802F08EF9F5
:100C500010BD10B54FF400611B4802F089F910BDBA
:100C600010B54FF40061184802F08BF910BD10B5B3
:100C700004464FF4807040FA04F1154802F078F908
:100C800010BD10B504464FF4807040FA04F11048CE
:100C900002F06CF910BD10B504464FF4807040FAB4
:100CA00004F10B4802F06DF910BD10B54FF400517E
:100CB000074802F05BF910BD10B54FF4005104482D
:100CC00002F056F910BD000000100240001402406E
:100CD0000018024000040240002002403418004086
:100CE000000800401C00002000B597B00121022040
:100CF00002F061FB0121102002F0B5FB0121880503
:100D000002F059FB0121102002F002FC002110200A
:100D100002F0FEFB8020159002208DF85800002084
:100D20008DF85A0003208DF8590000208DF85B00E3
:100D300015A9BD4802F09EF807221146BA4802F0F4
:100D400024F9BA4802F0D4FCB94811900020ADF85B
:100D50004800ADF84A004FF48060ADF84C00042024
:100D6000ADF84E000020ADF8500011A9AF4802F0D8
:100D700026FD1021AD4802F092FE012240F22441EE
:100D8000AA4802F05AFE01224021A84802F04CFE77
:100D90000121A64802F09BFD25208DF84000062089
:100DA0008DF8410000208DF8420001208DF84300AD
:100DB00010A801F06EFF00219E4803F097FC00BFD1
:100DC0009C48006800F001000028F9D1994803F020
:100DD000B1FB4FF0006001909448001D02909648CE
:100DE00003900020049024200590002006904FF4EA
:100DF000806007900020089009904FF480700A905E
:100E00004FF440300B9000200C900D900E900F90FE
:100E100001A9884803F030FC002287492431854825
:100E200003F08BFC0121834803F093FC00218148EF
:100E300003F05CFC01217F4803F058FC17B000BDB3
:100E400010B50021794802F042FD10BD10B50446EE
:100E50000021764802F03BFD0021764803F046FC75
:100E60002146744803F063FC1021704802F017FE1D
:100E70004FF081516F4803F0B2FC70496D4803F0A8
:100E800009FD01216B4803F031FC0121674802F0A4
:100E90001EFD10BD0146002901DD0846704748428D
:100EA00000B2FBE700B101B970470278437842EA2B
:100EB0000322C2F30A020A804278D210837842EAFF
:100EC0004312C2F30A024A8082789211C37842EA3E
:100ED0008302037942EA8322C2F30A028A800279FA
:100EE0005210437942EAC312C2F30A02CA8042791D
:100EF000C2F301128A72427912119308CB7282797D
:100F0000C37942EA032212B28A81027A437A42EA20
:100F1000032213B201F10C02CB81827AC37A42EA36
:100F2000032213B201F10C020B82037B8B74437B0F
:100F3000CB74827BC37B42EA03228A82027C437C9D
:100F400042EA032212B20A810A88A2F5806212B232
:100F50000A804A88A2F5806212B24A808A88A2F585
:100F6000806212B28A80CA88A2F5806212B2CA80F8
:100F70000A89A2F5806212B20A8100BF94E7304864
:100F8000704710B52E49B1F90000FFF783FFB0F5A7
:100F90002F7F00DD24E02A49B1F90200FFF77AFF34
:100FA000B0F52F7F00DD1BE02549B1F90400FFF704
:100FB00071FFB0F52F7F00DD12E02149B1F9060085
:100FC000FFF768FFB0F52F7F00DD09E01C48807A4D
:100FD00000B905E01A48C07A00B901E0002010BD50
:100FE00000201749088048808880C8800881022036
:100FF000887202211248C1720020114988810021A3
:101000000F48C18101828174C17400200C4988821B
:101010000120E4E710B52420FFF718FF10BD10B53C
:101020002420FFF713FF10BD000402400010014010
:10103000A08601004064024084020020008020104D
:10104000CC02002000B58BB00121084602F0FAF96D
:101050000121084602F0AFF901220021444801F0C5
:1010600094FF01221146424801F08FFF0122022124
:101070003F4801F08AFF012203213D4801F085FF2E
:101080000F20099002208DF8280003208DF82900F8
:1010900000208DF82A0001208DF82B0009A9344882
:1010A00001F0E8FE5920ADF818000020ADF81A0054
:1010B00040F2CF7007900020ADF8200006A94FF055
:1010C000804003F0B8FC6020ADF804000120ADF8CA
:1010D00006000020ADF810004FF47A70039001A9CB
:1010E000C00603F03DFD01A94FF0804003F071FD03
:1010F00001A94FF0804003F0B9FD01A94FF08040F5
:1011000003F01AFE0821C80603F0B7FE0821C8063E
:1011100003F0BCFE0821C80603F0C5FE0821C8067E
:1011200003F0CAFE0121880703F0F0FC01218807C3
:1011300003F00AFD0BB000BD10B54FF47A71C8067C
:1011400003F067FE4FF47A71C80603F064FE10BD29
:1011500010B5044621464FF0804003F05AFE10BD02
:1011600010B5044621464FF0804003F054FE10BDF8
:101170000000024000B58BB00121480602F062F980
:101180000121082002F017F90320099002208DF8B0
:10119000280003208DF8290009A9FE4801F06AFE05
:1011A00009220021FB4801F0F0FE09220121F94843
:1011B00001F0EBFE14208DF8200005208DF82100B1
:1011C00000208DF8220001208DF8230008A801F0EE
:1011D00060FD13208DF8200005208DF821000020EF
:1011E0008DF8220001208DF8230008A801F051FDA0
:1011F000E94802F0A7FC05A802F0C8FD00208DF820
:101200001A008DF81B008DF81C008DF81D008DF85C
:101210001E0001208DF81F0000208DF816008DF8AB
:10122000170005208DF8180007208DF819000320FD
:10123000ADF8140005A9D84802F09DFC00208DF8F7
:101240000E008DF80F0001208DF810000020ADF881
:101250000400ADF80600ADF80800ADF80A00ADF8DE
:101260000C0001208DF8110001A802F00EFD0122F2
:101270000221C94803F008F80BB000BD00B58BB0DF
:101280000121480602F0DEF80121880602F0DAF8B2
:101290000121022002F08FF84FF440500990022003
:1012A0008DF828008DF8290009A9BC4801F0E2FD5D
:1012B00009220C21B94801F068FE09220D21B74826
:1012C00001F063FE40208DF8200004208DF82100FD
:1012D00000208DF8220001208DF8230008A801F0DD
:1012E000D8FC3F208DF8200006208DF8210000203A
:1012F0008DF8220001208DF8230008A801F0C9FC18
:10130000A74802F01FFC05A802F040FD00208DF860
:101310001A008DF81B008DF81C008DF81D008DF84B
:101320001E0001208DF81F0000208DF816008DF89A
:10133000170005208DF8180007208DF819000320EC
:10134000ADF8140005A9964802F015FC0E208DF8A2
:101350000E0000208DF80F0001208DF810000020F5
:10136000ADF80400ADF80600ADF80800ADF80A00CD
:10137000ADF80C0001208DF8110001A802F085FCE9
:1013800001220221864802F07FFF01221146844893
:1013900002F07AFF0BB000BD10B5FFF7EBFEFFF7D0
:1013A0006DFF10BD2DE9F04186B006460D4614468E
:1013B0004FF00008019500208DF80C008DF80D000D
:1013C00008208DF80E002088000A8DF80F00217883
:1013D0008DF810106088010A8DF81110A1788DF831
:1013E0001210A088010A8DF8131021798DF81410BD
:1013F000E088010A8DF81510A1798DF8161001A961
:10140000304602F031FD074600BF3946304602F053
:10141000C3FD30B9404608F101084FF6FF7188421C
:10142000F3DB06B0BDE8F0815E4870475E48704768
:10143000014601F0030000EB80005C4A02EB400033
:101440007047014601F0030000EB8000584A02EBB0
:1014500040007047014601F0030000EB8000554A50
:1014600002EB4000704770B505460C462068A0F2BC
:10147000012007287ED2DFE800F061626364042364
:1014800042004848008800B246490881207BE17A42
:1014900040EA012043490880A17B607B41EA0020AB
:1014A00000B240498880217CE07B41EA002000B204
:1014B0003C494880607C8871012009F00CFB30E1D8
:1014C0003948008800B238490881207BE17A40EA37
:1014D000012035490880A17B607B41EA002000B2F1
:1014E00031498880217CE07B41EA002000B22E490E
:1014F0004880607C8871022009F0EDFA11E12D48E6
:10150000808A01B22B488183207BE17A40EA012066
:1015100028498882A17B607B41EA002001B22548EE
:10152000C182217CE07B41EA002001B22148018395
:10153000617C8176032009F0CEFAF2E000BF00BFA3
:1015400000BF154885425BD12078401E1A490870BB
:101550000846007800EB8000144931F8100000B212
:101560001549097801EB8101104A02EB410108811C
:10157000207B00E0D4E0E17A40EA01200E490978BE
:1015800001EB810122F81100A17B607B41EA002080
:1015900000B213E0000C024000640040000402406E
:1015A00000680040E2020020EC020020140300204A
:1015B0003C030020F6020020200000205A49097850
:1015C00001EB810102EB41014880217CE07B41EA93
:1015D000002000B25449097801EB810102EB41017E
:1015E0008880607C5049097801EB810102EB410160
:1015F00088714D490978091DC8B209F06CFA90E06C
:101600002068B0F5017F1ED14848008800B24749E4
:101610000881207BE17A40EA012044490880A17BCF
:10162000607B41EA002000B240494880217CE07B99
:1016300041EA002000B23D498880607C8871032027
:1016400009F049FA6DE040F20321206888421ED17A
:101650003648408901B235484182207BE17A40EA30
:10166000012032494881A17B607B41EA002001B220
:101670002E488181217CE07B41EA002001B22B4889
:10168000C181617C0174032009F025FA49E040F230
:101690000121206888421ED12548008800B22449D3
:1016A0000881207BE17A40EA012021490880A17B62
:1016B000607B41EA002000B21D494880217CE07B2C
:1016C00041EA002000B21A498880607C88710320BA
:1016D00009F001FA25E040F20221206888421ED17B
:1016E0001348408901B212484182207BE17A40EAE6
:1016F00001200F494881A17B607B41EA002001B2B3
:101700000B488181217CE07B41EA002001B208483E
:10171000C181617C0174032009F0DDF901E000BFA3
:1017200000BF00BF70BD000020000020F6020020B6
:101730003C03002000B597B00121880401F082FE2F
:101740000121082001F037FE0121480501F033FE98
:1017500007220921644801F018FC07220821624889
:1017600001F013FC4FF44070159002208DF85800E2
:1017700003208DF8590000208DF85A0001208DF8C3
:101780005B0015A9584801F075FB584802F0D2FEDD
:101790000021564802F0AAFF00BF544802F0F3FFB0
:1017A0000028FAD14FF00060019051480290514852
:1017B00003900020049064200590002006904FF4D0
:1017C000806007900020089009904FF480700A9084
:1017D00000020B9000200C9003200D9000200E9032
:1017E0000F9001A9414802F047FF002241496431AE
:1017F0003E4802F0A2FF01213C4802F0AAFF00216E
:101800003A4802F073FF0121384802F06FFF384870
:10181000001F01F06DFF4FF4E13011900020ADF892
:101820004800ADF84A00ADF84C00ADF850000C206F
:10183000ADF84E0011A92E48001F01F0C0FF102185
:101840002B48001F02F02BF9002240F226612848A5
:10185000001F02F0F2F8002240F225512448001F38
:1018600002F0EBF8012240F224412148001F02F06F
:10187000E4F8012240211E48001F02F0D5F80121A2
:101880001B48001F02F023F827208DF8400000209D
:101890008DF8410003208DF8420001208DF84300AF
:1018A00010A801F0F6F917B000BD18B50246FF20E8
:1018B0008DF800008DF801208DF80210FE208DF8C3
:1018C000030000200DE01DF80030094C238000BF0C
:1018D000074B1B1F1B8803F04003002BF8D0431C51
:1018E000D8B20428EFDB18BD000C0240286002408B
:1018F000044800404C5E012000B587B000200190F4
:101900008DF808008DF809000390059001208DF8EE
:10191000180001A9374804F08AFC07B000BD1FB5C4
:101920000121080201F09FFD0121080201F0F0FDF4
:1019300000214FF4807001F0EBFD012004F0DBFC8E
:1019400000200090039002904FF480300190684690
:1019500004F09CFCFFF7D0FF01231A461221254812
:1019600004F0EBFC0121234804F0A7FC1FBD10B5D7
:10197000044632211F4804F066FE01231A46214620
:101980001C4804F0DAFC1B4804F033FD00BF0221C0
:10199000184804F04FFE0028F9D0164804F065FD01
:1019A00010BD10B52DED028B002008EE900AFFF758
:1019B000A3FF1220FFF7DBFF08EE900AB8EE680ADB
:1019C000DFED0D0A20EE200AB0EE408A9FED0B0AF3
:1019D00038EE400ADFED0A0A80EE201AB3EE090A5B
:1019E00031EE000AB0EE408AB0EE480ABDEC028B40
:1019F00010BD0000002001403333533A5C8F423F5A
:101A00000AD7233B10B50021324803F002FA10BD7B
:101A100030B58BB005460C460121402001F012FD87
:101A20000121802001F0C7FC0121402001F05FFD71
:101A30000021402001F05BFD09220621264801F02B
:101A4000A4FA4020099002208DF8280003208DF888
:101A5000290000208DF82A0002208DF82B0009A90A
:101A60001D4801F007FA6020ADF804000120ADF830
:101A700006000020ADF8100001A9164803F070F828
:101A80000821144803F0F9F90121124803F03EF847
:101A9000681E0790601E80B2ADF818000020ADF8F7
:101AA0001A00ADF8200006A90A4802F0C4FF01217F
:101AB000084803F049F8FFF7A5FF0BB030BD70B53B
:101AC00004460D460348283004802946014803F0A7
:101AD000A0F970BD00180040001C024000B585B0A0
:101AE0000121022001F067FC0121880301F0BBFC09
:101AF0000821012001F0C3FD4FF480700090002008
:101B00008DF8040001208DF8060000208DF80700F4
:101B100003208DF805006946114801F0ABF94FF438
:101B20008070029000208DF80C0008208DF80D00C8
:101B300001208DF80E0002A804F0F4FA17208DF8A9
:101B4000100005208DF8110000208DF812000120F2
:101B50008DF8130004A801F09CF805B000BD00004A
:101B60000004024001460020F74A914204D2B1F13C
:101B7000006F01D31046B2E0F44A914204D2F24A17
:101B8000914201D3F148AAE0F14A914204D2EF4ACE
:101B9000914201D3EE48A2E0EE4A914204D2EC4ACF
:101BA000914201D3EB489AE0EB4A914204D2E94AD0
:101BB000914201D3E84892E0E84A914204D2E64AD1
:101BC000914201D3E5488AE0E54A914204D2E34AD2
:101BD000914201D3E24882E0E24A914204D2E04AD3
:101BE000914201D3DF487AE0DF4A914204D2DD4AD4
:101BF000914201D3DC4872E0DC4A914204D2DA4AD5
:101C0000914201D3D9486AE0D94A914204D2D74AD5
:101C1000914201D3D64862E0B1F1016F05D2D44AB6
:101C2000914202D34FF0016059E0D24A914204D26E
:101C3000B1F1016F01D3104651E0CF4A914204D275
:101C4000CC4A914201D3CC4849E0CC4A914204D2DB
:101C5000C94A914201D3C94841E0C94A914204D2DC
:101C6000C64A914201D3C64839E0C64A914204D2DD
:101C7000C34A914201D3C34831E0C34A914204D2DE
:101C8000C04A914201D3C04829E0C04A914204D2DF
:101C9000BD4A914201D3BD4821E0BD4A914204D2E0
:101CA000BA4A914201D3BA4819E0BA4A914204D2E1
:101CB000B74A914201D3B74811E0B74A914204D2E2
:101CC000B44A914201D3B44809E0B44A914204D2E3
:101CD000B14A914201D3B14801E04FF00260704730
:101CE00001460020984A914203D2B1F1006F00D31F
:101CF000B0E0964A914204D2934A914201D308201F
:101D0000A8E0934A914204D2904A914201D3102014
:101D1000A0E0904A914204D28D4A914201D318200A
:101D200098E08D4A914204D28A4A914201D3202000
:101D300090E08A4A914204D2874A914201D32820F6
:101D400088E0874A914204D2844A914201D33020EC
:101D500080E0844A914204D2814A914201D33820E2
:101D600078E0814A914204D27E4A914201D34020D8
:101D700070E07E4A914204D27B4A914201D34820CE
:101D800068E07B4A914204D2784A914201D35020C4
:101D900060E0B1F1016F04D2754A914201D358203D
:101DA00058E0744A914204D2B1F1016F01D380200E
:101DB00050E0714A914204D26E4A914201D3882088
:101DC00048E06E4A914204D26B4A914201D390207E
:101DD00040E06B4A914204D2684A914201D3982074
:101DE00038E0684A914204D2654A914201D3A0206A
:101DF00030E0654A914204D2624A914201D3A82060
:101E000028E0624A914204D25F4A914201D3B02055
:101E100020E05F4A914204D25C4A914201D3B8204B
:101E200018E05C4A914204D2594A914201D3C02041
:101E300010E0594A914204D2564A914201D3C82037
:101E400008E0564A914204D2534A914201D3D0202D
:101E500000E0D82070472DE9FE4F0746884691469E
:101E60004FF0000B0024A246002002900190009049
:101E700003F03CFEF32004F03DF93846FFF730FF55
:101E80008346CDF808B00221029803F083FE0928AA
:101E900002D0601EBDE8FE8F3C463846FFF762FE6A
:101EA0008246454600260EE02046296803F08EFF54
:101EB000092805D1241D2D1D761C4E4503D104E0B3
:101EC0004FF0FF30E6E75445EED900BF03F01BFEAC
:101ED0003C4600200090454600260EE02068019018
:101EE00028680199884202D00098401C0090241D67
:101EF0002D1D761C4E4500D101E05445EED300BFA8
:101F0000009810B14FF0FF30C4E70020C2E72DE980
:101F1000F04707460D4616464FF00008C14600241C
:101F20003846FFF7DDFE80462846FFF7D9FE81469A
:101F300044463AE03146204603F02CFE09282FD0D3
:101F40004FF0FF30BDE8F087004000080080000837
:101F500000C000080000010800000208000004089A
:101F6000000006080000080800000A0800000C082D
:101F700000000E08004010080080100800C0100883
:101F800000001108000012080000140800001608E4
:101F90000000180800001A0800001C0800001E08B5
:101FA000582C01D1283400E008344C45C2D9002017
:101FB000BDE8F0872DE9FC470546884691469A46DC
:101FC000002400200190009003F090FDF32004F025
:101FD00091F8022229462846FFF799FF2C464E46E3
:101FE00000270FE02046316803F0F0FE092805D1F4
:101FF000241D361D7F1C574504D105E04FF0FF30EE
:10200000BDE8FC874445EDD900BF03F07CFD2C46BC
:102010004E460027002000900EE0206801903068B6
:102020000199884202D00098401C0090241D361D62
:102030007F1C574500D101E04445EED300BF009816
:1020400010B14FF0FF30DBE70020D9E738B50023AF
:102050000024044600BF06E025680095009D0D6041
:10206000241D091D5B1C9342F6D338BD10B509240D
:1020700004F008F800F003001849086008460068FA
:1020800000B910BD03F01EFF0121032003F030FF53
:1020900003F0E3FF0446092C00D0F2E703F01FFF32
:1020A00000BFEEE710B5092403F0ECFF00F00300D9
:1020B0000A4908600846006868B903F003FF002178
:1020C000032003F015FF03F0C8FF0446092C00D0DD
:1020D00010BD03F004FF00BFFAE700002400002059
:1020E00000B587B00121202001F065F90121080524
:1020F00001F0B9F94FF46070059002208DF81800D6
:1021000000208DF81A0001208DF81B0003208DF8A7
:10211000190005A9814800F0ADFE052207217F487E
:1021200000F033FF052208217C4800F02EFF052235
:1021300009217A4800F029FF0121080501F0E8F99A
:1021400000214FF4801001F0E3F90020ADF8000009
:102150004FF48270ADF802000020ADF804000220B8
:10216000ADF806000120ADF808004002ADF80A0005
:102170003820ADF80C000020ADF80E000720ADF8B7
:1021800010006946664803F047FA0121644803F0ED
:102190003DFB07B000BD624A12884FF2C7731A4078
:1021A0005F4B1A801A46128802431A801A46128818
:1021B0000A431A801A46128842F040021A80704779
:1021C00070B590B005460E4614460121880501F011
:1021D000F2F844208DF83C0005208DF83D000020E9
:1021E0008DF83E0001208DF83F000FA800F051FD52
:1021F0004C4802F09FF900BF4A4802F0C4FA002898
:10220000FAD14FF06060009045480C300190029682
:1022100000200390049405904FF480600690002005
:102220000790089009904FF440300A9000200B90DE
:102230000C900D900E9069463A4802F01DFA01226A
:102240001021384802F0DFFA0021364802F04EFA39
:102250003448183802F06EF900BF3248183802F0DE
:1022600092FA0028F9D14FF0806000902C480C3091
:1022700001900295402003900494002005904FF4B3
:102280008060069000200790089009904FF48030FD
:102290000A9000200B900C900D900E9069462148FA
:1022A000183802F0E9F900211E48183802F01EFA29
:1022B00010B070BD10B5044600211A48183802F05D
:1022C00015FA0021174802F011FA00BF1548183816
:1022D00002F059FA0028F9D100BF124802F053FA6F
:1022E0000028FAD110490F4802F079FA0F490D4839
:1022F000183802F074FA21460A48183802F017FA22
:102300002146084802F013FA0121064802F0EEF9CE
:1023100001210448183802F0E9F910BD0014024008
:102320000050014088640240000C00203000002072
:1023300030B58BB005460C460121084601F03BF84C
:102340000121102001F037F80121084601F08BF837
:1023500001220821A64800F018FE01220921A44804
:1023600000F013FE01220D21A24800F00EFE012212
:102370000E21A04800F009FE4FF4407009900220A1
:102380008DF8280003208DF8290000208DF82A0000
:1023900001208DF82B0009A9954800F06BFD4FF442
:1023A000C040099009A9934800F064FD0121084646
:1023B00001F0AEF80021012001F0AAF8681E079094
:1023C000601E80B2ADF818000020ADF81A00ADF81C
:1023D000200006A9884802F02EFB6020ADF804001A
:1023E0000120ADF806000020ADF810004FF47A701F
:1023F000039001A9804802F0B3FB01A97E4802F0D6
:10240000E8FB01A97C4802F031FC01A97A4802F0FE
:1024100093FC0821784802F030FD0821764802F04C
:1024200035FD0821744802F03EFD0821724802F093
:1024300043FD0121704802F069FB01216E4802F062
:1024400074FF01216C4802F07FFB0BB030BD30B54A
:102450008BB005460C460121022000F0F3FF01215C
:10246000022000F0A8FF02220521644800F08DFD43
:102470000121022001F03BF80021022001F037F891
:102480001D208DF8140005208DF8150000208DF812
:10249000160001208DF8170005A800F0FAFB681E51
:1024A0000990601E80B2ADF820000020ADF8220037
:1024B000ADF8280001221146514802F05DFF08A93D
:1024C0004F4802F0B8FA2020069002208DF81C0038
:1024D00003208DF81D0000208DF81E0002208DF8CD
:1024E0001F0006A9454800F0C5FC6020ADF80000BB
:1024F0000120ADF802000020ADF80C00694640480C
:1025000002F067FB08213E4802F0C0FC01213C4874
:1025100002F0FCFA01213A4802F016FB0BB030BD84
:102520007FB505460C460121102000F08BFF0121EC
:10253000102000F0DCFF0021102000F0D8FF31480F
:1025400002F0CCF9681E0290601E80B2ADF8040063
:102550000020ADF80600ADF80C0001A9294802F0F2
:102560006AFA01221146274802F006FF36208DF84C
:10257000000004208DF8010000208DF802000120E9
:102580008DF80300684600F084FB01211D4802F02D
:10259000DBFA7FBD3EB505460C460121402000F028
:1025A00051FF0121402000F0A2FF0021402000F057
:1025B0009EFF681E0190601E80B2ADF800000020F2
:1025C000ADF80200ADF8080069460F4802F033FA92
:1025D00001210D4802F0B8FA3EBD10B501210848AE
:1025E00002F0E1FE18B10121054802F0D9FE10BD4C
:1025F00000000240001002400000014000040240C0
:1026000000040040001000400018004010B50446CF
:10261000032C00DD10BD0420A04081B21F4800F053
:10262000A7FC00BFF6E71CB50121802000F0C3FE27
:102630003C20009001208DF8040000208DF8060059
:1026400003208DF8050001208DF807006946134826
:1026500000F010FC002404E02046FFF7D7FF601CC8
:10266000C4B2042CF8DB1CBD10B50446032C00DDFD
:1026700010BD0420A04081B2084800F077FC00BFE4
:10268000F6E710B50446032C00DD10BD0420A04081
:1026900081B2024800F075FC00BFF6E7001C024062
:1026A00000B587B0F34801F023F80121402000F085
:1026B00082FE08220921F04800F067FC08220E2162
:1026C000ED4800F062FCED4903C9CDE9050105A91B
:1026D000E94800F0CFFB4FF48040059000208DF8D2
:1026E0001B0005A9E44800F0C5FB0121202000F0F3
:1026F000BAFE01A801F0C9F84FF4E13001900C20B6
:10270000ADF80E0001A9DB4801F059F8DB480830AC
:1027100000680090684600F0BCFA002240F22551A3
:10272000D44801F08AF9002240F22661D14801F034
:1027300084F9002240F22771CE4801F07EF901228F
:1027400040F22441CB4801F078F90121C94801F059
:10275000BEF807B000BD00B591B00121880500F0BA
:102760002AFEC74801F0E6FE02A801F0AEFF4FF0D6
:1027700020600290BF48001D0390C248049040F2C0
:1027800014500690402005900001089000200B9006
:102790004FF400300C9002A9B94801F06DFFB74822
:1027A0000C300068019001A800F073FA012210219A
:1027B000B34802F028F801228021AE4801F034F934
:1027C0000021AF4801F092FF40F6AC52AE49AF484D
:1027D0000CF00AFE11B000BD00B591B001218805D2
:1027E00000F0E9FDA648783801F0A4FE02A801F047
:1027F0006CFF4FF0206002909E48001D0390A4489B
:10280000049040F214500690002005904FF4806030
:10281000089080100B904FF440300C9000229D499E
:102820009748783801F089FF01219548783801F000
:1028300090FF02A99248783801F01EFF8F481030AF
:102840000068019001A800F024FA012210218C48B0
:10285000783801F0D8FF01224021864801F0E4F8E1
:1028600001218748783801F041FF40F6AC528A498F
:102870008A480CF0B9FD11B000BD10B540F22771C7
:102880007C4801F015F928B9002240F22661794808
:1028900001F0D3F810BD10B5002440F22441754872
:1028A00001F006F9A8B3734801F040F8002174481C
:1028B000783801F01BFF7A497148783801F08FFFB2
:1028C0006F48783801F055FF60B96D48783801F0ED
:1028D00030FF40F214510C1A22466D496F480CF03B
:1028E000CDFD0BE06648783801F023FF40F214512B
:1028F0000C1A2246674969480CF0C0FD40F2145199
:102900005F48783801F013FF01215D48783801F005
:10291000EDFE10BD10B5FFF7BEFFFFF7AEFF10BD17
:1029200010B560495648783801F08AFF00B35D4918
:102930005348783801F053FF5148783801F019FFB7
:1029400058B940F21452524954480CF097FD0021F6
:102950004B48783801F0EBFE0AE040F214524D4942
:102960004E480CF08BFD00214548783801F0DFFE21
:1029700010BD10B500244C49414801F061FF00B37F
:1029800049493F4801F02BFF00213D4801F0AEFED0
:10299000012240F22661374801F04FF83B480CF025
:1029A00008FE70B140F21452364938480CF0A0FDD0
:1029B0000446A1B2324801F0BAFE0121304801F0CC
:1029C00095FE10BD70B504460D462A4621462D4899
:1029D0000DF053FE29462A4801F0A9FE012128489E
:1029E00001F084FE70BD2DE9F04104460D4600263D
:1029F00026480CF0DEFD07462A46214623480CF007
:102A00003DFD064657B940F214521E491F480CF0CE
:102A10006FFD85B229461A4801F089FE0121184848
:102A200001F064FE3046BDE8F08170B504460D4605
:102A300000262CB12A46214618480CF059FD0646BE
:102A4000304670BD10B50446214614480CF08FFD89
:102A500010BD10B50446214610480CF093FD10BD82
:102A600010B50E480CF0A5FD10BD10B50B480CF0CC
:102A7000FEFC10BD0014014000180240643A010839
:102A8000A0640240780D0020A40E00200C2A002033
:102A90005003002064080020501C0020FC29002066
:102AA00000080010008800100080202010B506F0FB
:102AB0005AFA012801D004F06FF810BD70B5044631
:102AC000042000F033F93248047025464FF47A7040
:102AD000454301202F4908804FF0E020006940F075
:102AE00002004FF0E021086108464561006940F0AE
:102AF0000100086170BD70B5034600224FF0E0266A
:102B00007569234E367803FB06F44FF0E026B16971
:102B100010E04FF0E026B06988420BD0884202D224
:102B20000E1A324402E02E1A0E4432440146A242EA
:102B300000D300E0EDE700BF70BD70B5044606F0BD
:102B400012FA012811D013480088844206DB11488C
:102B5000008894FBF0F5284605F0ABFB0D48008893
:102B600094FBF0F100FB114084B24FF47A7104FB46
:102B700001F0FFF7C0FF70BD30B50446002504E04A
:102B80004FF47A70FFF7B7FF6D1CA542F8D330BD44
:102B9000280000202A000020014600BF00207047C6
:102BA000014600BF00207047C2B2254B1A8000BF0B
:102BB000234A121F128802F04002002AF8D0704700
:102BC00010B586B004460121082000F0F4FB012175
:102BD000480400F037FC072205211A4800F0D5F917
:102BE00007220621174800F0D0F902208DF81400C2
:102BF0008DF8150000208DF8160001208DF81700C3
:102C00006020049004A90F4800F034F900940020DB
:102C1000ADF80400ADF80600ADF80800ADF80C0002
:102C20000C20ADF80A0069460548001F00F0C7FDFA
:102C300001210348001F00F04AFE06B010BD00004D
:102C400004440040000C02400948804709480047FE
:102C5000FEE7FEE7FEE7FEE7FEE7FEE7FEE7FEE74C
:102C6000FEE7FEE704480549054A064B70470000A9
:102C7000E5070008AD010008D8650120D86B0120E8
:102C8000D8670120D867012032490143324A1160D8
:102C9000704770B5002100230F22C4781CB32E4C5E
:102CA000246804F4E064C4F5E064C4F30721C1F1CE
:102CB0000404E3B20A4144789C40E1B284781440B1
:102CC00021430C07210E254C05786155047804F04A
:102CD0001F050124AC4005786D11AD0005F1E0251C
:102CE000C5F8004109E0047804F01F050124AC4058
:102CF0001B4D0678761145F8264070BD194A0A40EA
:102D00000243154B1B1F1A60704739B1124A121D3E
:102D100012680243104B1B1D1A6006E00E4A121D7A
:102D2000126882430C4B1B1D1A607047042808D19F
:102D30004FF0E021096941F004014FF0E0221161F8
:102D400007E04FF0E021096921F004014FF0E02293
:102D5000116170470000FA050CED00E000E400E0AE
:102D600080E100E080FFFF1F10B5044698488442D0
:102D700008D10121084600F087FB0021012000F066
:102D800083FB76E09348844208D10121022000F0C1
:102D90007BFB0021022000F077FB6AE08E48844232
:102DA00008D10121042000F06FFB0021042000F075
:102DB0006BFB5EE08948844208D10121082000F0C5
:102DC00063FB0021082000F05FFB52E0844884424E
:102DD00008D10121102000F057FB0021102000F045
:102DE00053FB46E07F48844208D10121202000F0B7
:102DF0004BFB0021202000F047FB3AE07A48844258
:102E000008D10121402000F03FFB0021402000F0CC
:102E10003BFB2EE07548844208D10121802000F060
:102E200033FB0021802000F02FFB22E07048844219
:102E300008D10121801500F027FB0021A01500F02A
:102E400023FB16E06B48844208D10121401500F0B5
:102E50001BFB0021601500F017FB0AE06648844266
:102E600007D10121001500F00FFB0021201500F013
:102E70000BFB10BDF0B50A4600210023002400BF63
:102E80003DE0012505FA01F3156805EA03049C42BB
:102E900034D105684F000326BE40B543056015795F
:102EA0004E00B5400668354305601579012D02D006
:102EB0001579022D16D185684F000326BE40B54313
:102EC000856055794E00B540866835438560456814
:102ED00001268E40B5434560456896798E40B6B26E
:102EE00035434560C5684F000326BE40B543C56005
:102EF000D5794E00B540C6683543C560491C1029D8
:102F0000BFD3F0BD4FF6FF71016000210171417127
:102F10008171C171704708B54FF480320092009AF8
:102F20000A430092009AC261C161009AC261C269FB
:102F30000092C269009208BD0246002013690B404E
:102F40000BB1012000E0002070470146086980B203
:102F500070470246002053690B400BB1012000E08E
:102F6000002070470146486980B27047018370476E
:102F7000418370470AB1018300E04183704741619A
:102F8000704742694A4042617047F0B5002300240F
:102F90004D07ED0E02FA05F3CE1000F1200555F8AD
:102FA00026504E07F70E0F26BE40B543CF1000F156
:102FB000200646F82750CE1000F1200555F826507F
:102FC00045EA0304CE1000F1200545F82640F0BD87
:102FD000000002400004024000080240000C0240D1
:102FE000001002400014024000180240001C024081
:102FF000002002400024024000280240F6480068F9
:1030000040F00100F44908600020F34908310860ED
:10301000F1480068F1490840EF490860F048091D8F
:103020000860F048EC4984310860ED481038091D0B
:103030000860E948006820F48020E7490860002023
:10304000E5490C310860E4498C3108607047012182
:10305000E14A921C117011460870704710B5014684
:103060000022002300204A11012A02D1DA4C2368F1
:1030700008E0022A03D1D84C7034236802E0D64C11
:103080007434236801F01F02012494401C400CB1E9
:10309000012000E0002010BD38B500200090002481
:1030A000002500BF3120FFF7D9FF05460098401CDE
:1030B00000900098B0F5A04F01D0002DF2D0312043
:1030C000FFF7CCFF08B1012400E00024204638BD02
:1030D00001460020C04A106820F0F80040EAC10014
:1030E00010607047C049086070470021BA4A7032CA
:1030F00011701170012802D004280AD104E00121C6
:10310000B54A7032117005E00521B34A7032117072
:1031100000E000BF00BF7047B4490860704770B559
:10312000049C41EA82150126C6EB530645EA064592
:10313000054345EA0465A84E361D356070BDAA49B1
:103140000866704710B5830143EA016343EA0273DE
:10315000A14C8434236010BDA3498866704710B524
:10316000830143EA016343EA02739B4C8834236082
:1031700010BD9D49086770479B49C8647047024667
:103180000020954B0833186820F0EC6042EA0103F8
:103190001843914B083318607047024600208E4B4D
:1031A0000833186820F0784042EA010318438A4B3C
:1031B00008331860704701460020874A08321068BB
:1031C00020F003000843106070478348083000680F
:1031D00000F00C007047014600207F4A083210685A
:1031E00020F0F000084310607047014600207A4A42
:1031F0000832106820F4E050084310607047014620
:103200000020754A0832106820F4604040EAC1008E
:1032100010607047F0B5002100220024022500262E
:1032200002236D4F08373F6807F00C0121B10429D4
:1032300005D0082937D105E06D4F076036E06D4FA6
:10324000076033E0644F3F1D3F68C7F38056624F0D
:103250003F1D3F6807F03F036EB1664FB7FBF3F7C2
:10326000DFF874C10CF1040CDCF800C0CCF3881C4E
:1032700007FB0CF40CE05E4FB7FBF3F7DFF858C127
:103280000CF1040CDCF800C0CCF3881C07FB0CF438
:10329000514F3F1D3F68C7F301477F1C7D00B4FBC2
:1032A000F5F7076002E0524F076000BF00BF4A4FCA
:1032B00008373F6807F0F00109094F4F7A5C07684B
:1032C000D7404760444F08373F6807F4E051890A08
:1032D000494F7A5C4768D74087603F4F08373F685F
:1032E00007F46041490B444F7A5C4768D740C76098
:1032F000F0BD002100F44072B2F5407F0AD1364A99
:103300000832116821F4F8113C4A02401143324A54
:1033100008321160304A70321268C0F30B031A434E
:103320002D4B70331A60704730494439086070473C
:103330002E4940390860704731490860704701469E
:103340000020254A8C32106820F01F004A1E1043CE
:10335000214A8C3210607047014600201E4A8C3290
:10336000106820F4F8504A1E40EA02201A4A8C32B3
:103370001060704701460020174A8C32106820F414
:10338000401008431060704701460020124A8C32FA
:10339000106820F440000843106070470146002088
:1033A0000D4A8C32106820F440300843106070479A
:1033B00014490860704739B1074A30321268024335
:1033C000054B30331A6006E0034A303212688243FC
:1033D000014B30331A60704700380240FFFFF6EAB5
:1033E000103000240030002000004742800E474289
:1033F0000024F400001BB70030000020FFFCFF0F8A
:103400005C014742E011474229B1934A12680243E6
:10341000914B1A6004E0904A126882438E4B1A6006
:10342000704739B18C4A121D126802438A4B1B1D2A
:103430001A6006E0884A121D12688243864B1B1DE3
:103440001A60704739B1844A0C3212680243824BC9
:103450000C331A6006E0804A0C32126882437E4BBD
:103460000C331A60704739B17B4A1032126802433C
:10347000794B10331A6006E0774A103212688243A3
:10348000754B10331A60704739B1734A243A126889
:103490000243714B243B1A6006E06F4A243A1268DB
:1034A00082436D4B243B1A60704739B16A4A203A17
:1034B00012680243684B203B1A6006E0664A203AD5
:1034C00012688243644B203B1A60704739B1624AEC
:1034D0001C3A12680243604B1C3B1A6006E05E4ACD
:1034E0001C3A126882435C4B1C3B1A60704739B12E
:1034F000594A143A12680243574B143B1A6006E0CB
:10350000554A143A12688243534B143B1A60704771
:1035100039B1514A103A126802434F4B103B1A60BE
:1035200006E04D4A103A126882434B4B103B1A603A
:10353000704739B1484A1C3212680243464B1C336B
:103540001A6006E0444A1C3212688243424B1C3324
:103550001A60704739B1404A2032126802433E4B2C
:1035600020331A6006E03C4A2032126882433A4B0C
:1035700020331A60704739B1374A24321268024347
:10358000354B24331A6006E0334A243212688243F2
:10359000314B24331A60704739B12F4A2C321268EC
:1035A00002432D4B2C331A6006E02B4A2C32126852
:1035B0008243294B2C331A60704739B1264A303286
:1035C00012680243244B30331A6006E0224A30323C
:1035D00012688243204B30331A607047012808D1AB
:1035E0001D493C31096841F008011B4A3C32116019
:1035F00007E019493C31096821F00801164A3C32BC
:103600001160704739B1144A273A12780243124BBD
:10361000273B1A7006E0104A273A127882430E4B75
:10362000273B1A7070470C484030006840F08070AB
:10363000094940310860704701460020064A283A8F
:1036400012680A400AB1012000E0002070470249D8
:1036500026390870704700003438024010B5012147
:103660008803FFF755FF00214FF48040FFF750FF1C
:1036700010BD1C49086070471B490862704730B58F
:1036800000228B071C0F0F2303FA04F2154B08339B
:103690008C1053F824309343124C08348D1044F8A6
:1036A000253023468C1053F824308C07240F00FA61
:1036B00004F423430B4C08348D1044F8253030BDFE
:1036C0000949DC31086070470849086070470020EC
:1036D00004492031096801F4807109B1012000E03A
:1036E00000207047003801400000274200042742B4
:1036F00010B50446FA48844208D101211020FFF792
:1037000007FF00211020FFF703FF57E0F548844230
:1037100009D101214804FFF7EAFE00214FF40030EF
:10372000FFF7E5FE4AE0F048844209D10121880410
:10373000FFF7DDFE00214FF48020FFF7D8FE3DE0CB
:10374000EA48844209D10121C804FFF7D0FE0021D4
:103750004FF40020FFF7CBFE30E0E548844209D16A
:1037600001210805FFF7C3FE00214FF48010FFF789
:10377000BEFE23E0DF48844208D101212020FFF76C
:10378000C7FE00212020FFF7C3FE17E0DA4884427D
:1037900009D101218807FFF7AAFE00214FF08040E0
:1037A000FFF7A5FE0AE0D548844207D10121400574
:1037B000FFF79DFE00216005FFF799FE10BD2DE982
:1037C000FF4705460E460024A14600BFA046B0892B
:1037D00000B100BF2C8A24F44054F08804432C82AA
:1037E000AC8941F20C608443B08831890843718907
:1037F00008430443AC81AC8A24F44074B089044388
:10380000AC826846FFF706FDB548854202D0B9484C
:10381000854202D1DDF80C9001E0DDF80890A8891E
:1038200000F4004040B109EBC90000EB0910316819
:103830004900B0FBF1F707E009EBC90000EB091004
:1038400031688900B0FBF1F76420B7FBF0F00401A8
:103850002009642101FB1078A88900F4004040B1E0
:10386000322000EBC800B0FBF1F000F00700044389
:1038700008E0322000EB08106421B0FBF1F000F00A
:103880000F0004432C81BDE8FF874FF416510160FF
:1038900000218180C18001810C2141810021818131
:1038A000704710B502460020108A20F470600B8823
:1038B0004C8823438C882343CC88234318431082AD
:1038C00010BD0021018041808180C180704721B1FD
:1038D000828942F40052828104E082894DF6FF73AE
:1038E0001A4082817047028B02F47F420283028B6E
:1038F0000A430283704721B1828942F400428281E7
:1039000003E08289C2F30E028281704721B1828A6C
:1039100042F40062828204E0828A4FF2FF731A400E
:1039200082827047C1F3080282807047014688880E
:10393000C0F308007047028A4FF6F0731A40028203
:10394000028A0A430282704721B1828942F0020250
:10395000828104E082894FF6FD731A4082817047AC
:1039600082894FF2FF731A40828182890A438281E1
:103970007047028A4FF6DF731A400282028A0A43B6
:103980000282704721B1028A42F48042028204E03E
:10399000028A4BF6FF731A4002827047818941F018
:1039A00001018181704721B1828A42F0080282823E
:1039B00004E0828A4FF6F7731A4082827047028BC6
:1039C000D2B20283028B42EA01220283704721B104
:1039D000828A42F02002828204E0828A4FF6DF73FC
:1039E0001A408282704721B1828A42F0100282829C
:1039F00004E0828A4FF6EF731A4082827047828A0F
:103A00004FF6FB731A408282828A0A438282704791
:103A100021B1828A42F00202828204E0828A4FF659
:103A2000FD731A40828270471AB1838A0B438382E6
:103A300002E0838A8B4383827047F0B503460024FB
:103A400000260025002040F66A17B94200D100BFC9
:103A50001846C1F3421401F01F06012707FA06F5C4
:103A6000012C01D10C3004E0022C01D1103000E017
:103A700014301AB107682F43076002E00768AF43AC
:103A80000760F0BD02460020B1F5007F00D100BF05
:103A900013880B400BB1012000E00020704701F4B7
:103AA0000072B2F5007F00D100BFCA4302807047A8
:103AB00070B50246002400230025002040F66A1657
:103AC000B14200D100BFC1F3421501F01F0301262E
:103AD00006FA03F3012D13D19689334017E0000055
:103AE000001001400044004000480040004C0040ED
:103AF000005000400014014000780040007C00406D
:103B0000022D02D1168A334001E0968A33400C120E
:103B1000012606FA04F41688344013B10CB10120D2
:103B200000E0002070BD10B50022002340F66A14AA
:103B3000A14200D100BF0A1201249440A3B2DC4389
:103B4000048010BD10B50446FE48844209D101210D
:103B50004806FFF7CCFC00214FF00070FFF7C7FCD0
:103B600008E001218806FFF7C2FC00214FF08060C9
:103B7000FFF7BDFC10BD30B50246002000231468DD
:103B800024F002041460146844F00104146000E09E
:103B90005B1C546804F001041CB94FF6FF74A34287
:103BA000F6D1546804F001040CB900206CE08C7963
:103BB000012C04D1146844F08004146003E01468FC
:103BC00024F080041460CC79012C04D1146844F0F2
:103BD0004004146003E0146824F0400414600C7A7C
:103BE000012C04D1146844F02004146003E014682C
:103BF00024F0200414604C7A012C04D1146844F0A1
:103C00001004146003E0146824F0100414608C7A2B
:103C1000012C04D1146844F00804146003E0146813
:103C200024F008041460CC7A012C04D1146844F008
:103C30000404146003E0146824F0040414608C7815
:103C4000A407CD7844EA05640D7944EA05444D792A
:103C500044EA05540D886D1E2C43D461146824F089
:103C600001041460002300E05B1C546804F00104AC
:103C70001CB14FF6FF74A342F6D1546804F001045E
:103C80000CB1002000E0012030BD10B50021837A86
:103C9000012202FA03F1AC4A126842F00102AA4B77
:103CA0001A60A94A1C3212688A43A74B1C331A6057
:103CB000027BCAB9A44A0C3212688A43A24B0C3365
:103CC0001A604288C38842EA03439F4A4032847A9A
:103CD00042F834300288838842EA03439A4A4032E9
:103CE000847A02EBC4025360027B012A19D1964AFE
:103CF0000C3212680A43944B0C331A6042880388D2
:103D000042EA0343904A4032847A42F83430C2880F
:103D1000838842EA03438C4A4032847A02EBC4022D
:103D20005360C27A3AB9884A121D12688A43864B98
:103D30001B1D1A6006E0844A121D12680A43824B5A
:103D40001B1D1A60028932B97F4A143212688A43F5
:103D50007D4B14331A600289012A06D17A4A143243
:103D600012680A43784B14331A60427B012A06D149
:103D7000754A1C3212680A43734B1C331A60724A2C
:103D8000126822F00102704B1A6010BD002181718F
:103D9000C171017241728172C1728170C17003215F
:103DA0000171022141710121018070476649096852
:103DB00041F00101644A11601146096843F60E7230
:103DC0009143614A11601146096841EA002111607E
:103DD0001146096821F001011160704721B10268A4
:103DE00042F48032026003E0026822F48032026012
:103DF0007047E1B1026842F0800202604FF4C27283
:103E0000125842F480734FF4C27213504FF4CA72C6
:103E1000125842F480734FF4CA7213504FF4D272A6
:103E2000125842F480734FF4D27213501BE00268B0
:103E300022F0800202604FF4C272125822F48073A2
:103E40004FF4C27213504FF4CA72125822F48073A6
:103E50004FF4CA7213504FF4D272125822F4807386
:103E60004FF4D2721350704710B502460020936889
:103E700003F08063B3F1806F00D110E0936803F02A
:103E80000063B3F1006F01D1012008E0936803F0F3
:103E90008053B3F1805F01D1022000E004200428A8
:103EA00079D002F5C07303EB00131B6803F0010423
:103EB00002F5C07303EB00131C600B7A7BB94B7ADD
:103EC0000C8843EA445302F5C07404EB00142468E0
:103ED000234302F5C07404EB0014236010E00B7A56
:103EE0004C6843EAC4034C7A234302F5C07404EBE4
:103EF00000142468234302F5C07404EB001423600B
:103F00008B7A03F00F038B7202F5C07303EB00137F
:103F10005B6823F00F0402F5C07303EB00135C60D1
:103F200002F5C07303EB00135B688C7A234302F540
:103F3000C07404EB001463608B7B1C064B7B44EA6B
:103F4000034403E000640040006600400B7B44EA49
:103F50000323CC7A234302F5C07404EB0014A3605E
:103F60008B7C1C064B7C44EA03440B7C44EA032311
:103F7000CC7B234302F5C07404EB0014E36002F52C
:103F8000C07303EB00131B6843F0010402F5C07318
:103F900003EB00131C6010BD10B50246002321B1D5
:103FA000012907D002290FD109E09068F94C00EAF5
:103FB00004030BE09068F84C00EA040306E0906804
:103FC000F64C00EA040301E0002300BF00BFF44CFC
:103FD000181BA34216D007DC83B16FF08060184431
:103FE00070B1022818D111E0B0F5007F10D0ED4C6F
:103FF000204448B1B0F5003F0ED10BE002230DE0A4
:1040000000230BE0002309E0002307E0012305E083
:10401000012303E0012301E0002300BF00BFD8B269
:1040200010BD21B1012907D002290FD109E0826812
:1040300042F0800282600AE0826842F400428260BC
:1040400005E0826842F40002826000E000BF00BF29
:10405000704710B500F5D87303EB01131B6803F02C
:1040600004031372137A53B900F5D87303EB0113E9
:104070001B6840F2FF7404EA5353136009E000F533
:10408000D87303EB01131B686FF0604404EAD30399
:10409000536000F5D87303EB01131B6803F00203B0
:1040A000537200F5D87303EB01135B6803F00F0341
:1040B000937200F5D87303EB01135B681B0AD3748A
:1040C00000F5D87303EB01139B68D37200F5D87326
:1040D00003EB01139B681C0A147300F5D87303EB00
:1040E00001139B681C0C547300F5D87303EB011388
:1040F0009B681B0E937300F5D87303EB0113DB6809
:10410000D37300F5D87303EB0113DB681C0A147436
:1041100000F5D87303EB0113DB681C0C547400F535
:10412000D87303EB0113DB681B0E937421B9C368CA
:1041300043F02003C36003E0036943F020030361FD
:1041400010BD21B9C26842F02002C26003E00269DA
:1041500042F02002026170470246002019B9D3687C
:1041600003F0030006E0012903D1136903F0030003
:1041700000E00020704710B502460B4600204FF6C5
:10418000FF71BBB9146824F0020444F00104146008
:1041900000E0491E546804F00304012C01D00029FA
:1041A000F7D1546804F00304012C01D0002032E060
:1041B000012030E0012B13D1146824F003041460B3
:1041C00000E0491E546804F003040CB10029F8D142
:1041D000546804F003040CB100201CE001201AE034
:1041E000022B17D1146824F0010444F00204146077
:1041F00000E0491E546804F00304022C01D0002999
:10420000F7D1546804F00304022C01D0002002E02E
:10421000012000E0002010BD014600200A6822F0C5
:10422000010242F002020A604A6802F00302022A16
:1042300000D10120704701464FF6FF7200200B6845
:1042400023F002030B6000E0521E4B6803F00203F0
:10425000022B01D1002AF7D14B6803F00203022B95
:1042600000D001207047014600208A6902F07000EA
:104270007047014600208A69100E704701460020F1
:104280008A69C2F3074070471AB143690B4343611F
:1042900002E043698B434361704710B5024600203A
:1042A00001F4700343B19369C1F3130423400BB1CC
:1042B00001202DE000202BE001F0807343B1536812
:1042C000C1F3130423400BB1012021E000201FE0C3
:1042D00001F0006343B19368C1F3130423400BB1B1
:1042E000012015E0002013E001F0007343B1D36812
:1042F000C1F3130423400BB1012009E0002007E0C3
:104300001369C1F3130423400BB1012000E0002026
:1043100010BD0022244B994202D10023836111E099
:10432000C1F3130201F000730BB1C2600AE001F0A7
:1043300080630BB1026105E001F000630BB18260A4
:1043400000E0426070470246002002EA01030BB120
:10435000012000E00020704770B504460D4600269D
:1043600060692840002872D0B5F5807F69D01DDCD7
:10437000082D42D006DC012D2DD0022D31D0042D88
:104380007FD134E0102D3ED0202D42D0402D78D169
:1043900045E00000030000040003000800000310D3
:1043A000000100080001FFF77000F030B5F5004F84
:1043B00061D009DCB5F5007F4AD0B5F5806F4DD0EE
:1043C000B5F5006F5DD150E0B5F5803F2DD0B5F566
:1043D000003F56D12FE0A0685549FFF7B4FF0646CD
:1043E00051E0E0680321FFF7AEFF06464BE0E068CE
:1043F0000821FFF7A8FF064645E0E0681021FFF717
:10440000A2FF06463FE020690321FFF79CFF064616
:1044100039E020690821FFF796FF064633E020695E
:104420001021FFF790FF06462DE060680821FFF796
:104430008AFF064627E060681021FFF784FF0646E2
:1044400021E0A0690121FFF77EFF06461BE01BE08B
:10445000A0690221FFF777FF064614E0A069042156
:10446000FFF771FF06460EE00BE0A0697021FFF731
:104470006AFF064607E060680421FFF764FF06460E
:1044800001E0002600BF00E00026304670BDB1F517
:10449000007F3AD00FDC202928D006DC01291CD06F
:1044A00004291DD0082940D11DE0402921D0B1F5B3
:1044B000807F3AD126E0B1F5004F31D006DCB1F56E
:1044C000806F25D0B1F5006F2FD124E0B1F5803F8A
:1044D00012D0B1F5003F28D111E0154A826025E0E5
:1044E0000822C26022E01022C2601FE0082202619E
:1044F0001CE01022026119E00822426016E010223E
:10450000426013E00422426010E0042242600DE0A9
:10451000042242600AE0002282610422426005E037
:10452000002282610422426000E000BF00BF7047A9
:1045300001010100016821F0010101600021016019
:1045400041608160C160016121214161DB49884294
:1045500004D13D21D94A103A91608CE0D7491831F5
:10456000884205D14FF47461D44A103A916082E0D8
:10457000D2493031884205D14FF47411CF4A103AF4
:10458000916078E0CD494831884205D14FF074619F
:10459000CA4A103A91606EE0C8496031884204D13D
:1045A000C749C64A103AD16065E0C44978318842AB
:1045B00004D1C449C14A103AD1605CE0BF4990318E
:1045C000884204D1C049BD4A103AD16053E0BB498A
:1045D000A831884205D14FF03D51B84A103AD16018
:1045E00049E0BA49884204D13D21B84A083A1160ED
:1045F00041E0B6491831884205D14FF47461B34A9D
:10460000083A116037E0B1493031884205D14FF4A2
:104610007411AE4A083A11602DE0AC494831884225
:1046200005D14FF07461A94A083A116023E0A74907
:104630006031884204D1A249A44A121F11601AE0D5
:10464000A2497831884204D19E49A04A121F1160C4
:1046500011E09E499031884204D19B499B4A121F28
:10466000116008E09949A831884204D14FF03D51CA
:10467000964A121F1160704710B500220268944BD1
:104680001A40CC680B6823434C6923438C6923434D
:10469000CC6923430C6A23434C6A23438C6A23432B
:1046A0004C6B23438C6B23431A430260426922F014
:1046B0000702D1E90B3423431A4342610B6943607B
:1046C0004B6883608B68C36010BD0021016041604E
:1046D0008160C160016141618161C16101624162CA
:1046E0008162C162016341638163704721B10268E5
:1046F00042F00102026003E0026822F0010202605F
:10470000704721B1026842F40042026003E002688F
:1047100022F400420260704721B1026842F0200298
:10472000026003E0026822F02002026070474160EC
:1047300070470146486880B2704722B1036843F46D
:104740000023036003E0036823F400230360016196
:10475000704721B1026842F48022026003E00268DF
:1047600022F48022026070470AB1016100E0C1605A
:104770007047014600200A6802F400220AB10120B5
:1047800000E000207047014600200A6802F00102A4
:104790000AB1012000E000207047014600204A696C
:1047A00002F03800704730B503460A460020002466
:1047B000464DAB4202D24149103901E0434910391C
:1047C00002F000550DB14C6800E00C68414D2C40E2
:1047D00004EA02050DB1012000E0002030BD0246D0
:1047E0003A4B9A4202D23548103801E03748103827
:1047F00001F000531BB1374B0B40C36002E0354B57
:104800000B408360704710B501F080034BB122B1BB
:10481000436943F08003436103E0436923F080036D
:10482000436180290BD02AB1036801F01E042343A1
:10483000036004E0036801F01E04A343036010BD9D
:1048400070B50246002000240025204EB24202D25C
:104850001A4B103B01E01D4B103B1F4E0E4036B172
:104860001E2606EAD124166806EA040502E0566907
:1048700006F0800501F000560EB15C6800E01C688F
:10488000144E344004EA010616B10DB1012000E0D7
:10489000002070BD02460D4B9A4202D207481038E4
:1048A00001E00A48103801F000531BB1094B0B40DE
:1048B000C36002E0074B0B4083607047106002400A
:1048C0003D000020400F002000003D201064024009
:1048D0003F801CF07D0F7D0F3C0F3C0F10B5044650
:1048E000FE48844208D101210846FEF711FE00214E
:1048F0000120FEF70DFE9DE0B4F1804F08D10121AB
:104900000846FEF7F4FD00210120FEF7F0FD91E0DE
:10491000F348844208D101210220FEF7E8FD00217E
:104920000220FEF7E4FD85E0EE48844208D1012133
:104930000420FEF7DCFD00210420FEF7D8FD79E01D
:10494000E948844208D101210820FEF7D0FD00216A
:104950000820FEF7CCFD6DE0E448844208D1012137
:104960001020FEF7C4FD00211020FEF7C0FD61E01D
:10497000DF48844208D101212020FEF7B8FD002144
:104980002020FEF7B4FD55E0DA48844208D1012129
:104990000220FEF7BDFD00210220FEF7B9FD49E02F
:1049A000D548844209D101210804FEF7B1FD002158
:1049B0004FF48030FEF7ACFD3CE0D048844209D192
:1049C00001214804FEF7A4FD00214FF40030FEF75A
:1049D0009FFD2FE0CA48844209D101218804FEF7D7
:1049E00097FD00214FF48020FEF792FD22E0C5489C
:1049F000844208D101214020FEF779FD00214020AA
:104A0000FEF775FD16E0C048844208D101218020E0
:104A1000FEF76DFD00218020FEF769FD0AE0BB482E
:104A2000844207D101218015FEF761FD0021A01508
:104A3000FEF75DFD10BD00220288A84B98420ED003
:104A4000AC4B98420BD0B0F1804F08D0A44B9842A9
:104A500005D0A44B984202D0A34B984204D14FF604
:104A60008F731A404B881A43A04B984207D0A04B33
:104A7000984204D04FF6FF431A400B891A43028034
:104A80004B68C3620B880385944B984202D0994BC4
:104A9000984201D18B7A03860123838270474FF0BD
:104AA000FF314160002101800181418081727047A6
:104AB0000185828270470A46002101884FF68F7374
:104AC000194011430180704741627047C1627047CD
:104AD0000146486A70470146088D704721B1028837
:104AE00042F00202028004E002884FF6FD731A4091
:104AF0000280704721B1028842F00402028004E083
:104B000002884FF6FB731A400280704721B1028879
:104B100042F08002028004E002884FF67F731A4060
:104B20000280704702884FF6F7731A4002800288AD
:104B30000A430280704702884FF6FF431A40028002
:104B400002880A430280704721B1028842F00102C4
:104B5000028004E002884FF6FE731A40028070471C
:104B600070B5002400220023058C4FF6FE763540F8
:104B70000584028C8388048B4FF68F752C40B51EFC
:104B80002C400D882C43751E2A408D892A434D8860
:104B90002A43524DA84202D0564DA84213D14FF697
:104BA000F7752A40CD892A434FF6FB752A408D8838
:104BB0002A434FF6FF652B404FF6FF552B400D8AD9
:104BC0002B434D8A2B43838004838D684563028485
:104BD00070BD70B5002400220023058C4FF6EF76DF
:104BE00035400584028C8388048B48F6FF752C4081
:104BF0004FF6FF452C400D884FF6FF7606EA052557
:104C00002C434FF6DF752A408D8906EA05152A43A5
:104C10004D8806EA05152A43304DA84202D0354D8D
:104C2000A8421DD14FF67F752A40CD894FF6FF76F9
:104C300006EA05152A434FF6BF752A408D8806EA15
:104C400005152A434FF6FF352B404FF2FF752B40D9
:104C50000D8A06EA85052B434D8A06EA85052B4316
:104C6000838004838D688563028470BD70B50024E1
:104C700000220023058C4FF6FF6635400584028C28
:104C80008388848B4FF68F752C404FF6FC752C4033
:104C90000D882C434FF6FF552A408D894FF6FF763D
:104CA00006EA05252A434D8806EA05252A430B4DC9
:104CB000A84202D00F4DA84238D14FF2FF752A40CA
:104CC000CD894FF6FF7606EA05252A434FF6FF35D4
:104CD0002A408D8806EA05252A4319E00000014094
:104CE0000004004000080040000C0040001000409C
:104CF0000014004000040140004001400044014015
:104D00000048014000180040001C00400020004006
:104D10004EF6FF752B404DF6FF752B400D8A06EAC7
:104D200005152B434D8A06EA05152B4383808483A2
:104D30008D68C563028470BD70B500220023002415
:104D4000058C4EF6FF7635400584038C8488828B73
:104D500048F6FF752A404FF6FF452A400D884FF66A
:104D6000FF7606EA05252A434DF6FF752B408D890F
:104D700006EA05352B434D8806EA05352B43FE4DE3
:104D8000A84202D0FD4DA84208D14BF6FF752C4039
:104D90000D8A4FF6FF7606EA85152C4384808283C0
:104DA0008D680564038470BD00210180418081808D
:104DB00081608181C18101824182704770B5034663
:104DC000002000241846183001258D40ACB21D8CFF
:104DD000A5431D8409B108290AD100EB61000568CB
:104DE0004FF68F76354005600568154305600FE086
:104DF0000D1FC5F34E052844056848F6FF7635407B
:104E0000056005684FF6FF7606EA02263543056021
:104E100070BD4163704781637047C163704701642F
:104E200070470A460021018B4FF68F7319401143DA
:104E3000018370470A460021018B48F6FF73194031
:104E40004FF6FF7303EA02231943018370470A46B2
:104E50000021818B4FF68F73194011438183704776
:104E60000A460021818B48F6FF7319404FF6FF7305
:104E700003EA02231943818370470A460021018B0C
:104E80004FF6F77319401143018370470A4600211A
:104E9000018B4FF2FF7319404FF6FF7303EA0223B1
:104EA0001943018370470A460021818B4FF6F7733F
:104EB00019401143818370470A460021818B4FF2CC
:104EC000FF7319404FF6FF7303EA022319438183EE
:104ED00070470A460021018B4FF6FB7319401143BE
:104EE000018370470A460021018B4FF6FF331940BA
:104EF0004FF6FF7303EA02231943018370470A4602
:104F00000021818B4FF6FB73194011438183704759
:104F10000A460021818B4FF6FF3319404FF6FF738D
:104F200003EA02231943818370470A460021018B5B
:104F30004FF67F7319401143018370470A460021E1
:104F4000018BC1F30E014FF6FF7303EA02231943ED
:104F5000018370470A460021818B4FF67F73194009
:104F60001143818370470A460021818BC1F30E01F2
:104F70004FF6FF7303EA02231943818370470A4601
:104F80000021018C4FF6FD731940114301847047D5
:104F90000A460021018C4FF6F77319401143018432
:104FA00070470A460021018C4FF6DF7319404FF617
:104FB000FF7303EA02131943018470470A46002174
:104FC000018C4FF67F7319404FF6FF7303EA02130B
:104FD0001943018470470A460021018C4FF6FF53A4
:104FE00019404FF6FF7303EA022319430184704707
:104FF0000A460021018C4FF2FF7319404FF6FF73F0
:1050000003EA02231943018470470A460021018CF8
:105010004DF6FF7319404FF6FF7303EA023319434D
:105020000184704730B5002301248C40A3B2048C66
:105030009C430484048C02FA01F5ADB22C43048431
:1050400030BD30B5002304248C40A3B2048C9C43B3
:105050000484048C02FA01F5ADB22C43048430BD03
:10506000828B4FF2FF331A408283828B4FF6FF739D
:1050700003EA01231A4382837047F0B50C461546B4
:10508000002100220026078C4EF6FF7C07EA0C0761
:105090000784818B028C4FF6FF7707EA043640F6CF
:1050A000FF4739404FF6FF7707EA052739434FF6A8
:1050B000FF7707EA0337394345F6FF773A4046F46E
:1050C00080573A4381830284F0BD828B4FF6F3739D
:1050D0001A408283828B0A4382837047F0B50C4664
:1050E0001546002100220026078C4FF6FF6C07EAC8
:1050F0000C070784818B028C4FF6FF7707EA0426A2
:105100004FF60C7739404FF6FF7707EA03172F4326
:1051100039434FF2FF573A4046F480773A43818350
:105120000284F0BD028B4FF2FF331A400283028BE0
:105130004FF6FF7303EA01231A4302837047F0B569
:105140000C461546002100220026078C4FF6EF7C06
:1051500007EA0C070784018B028C4FF6FF7707EAFA
:10516000041640F6FF4739404FF6FF7707EA03374A
:1051700039434FF6FF7703E000000140000401408F
:1051800007EA052739434FF65F773A4046F01007A4
:105190003A4301830284F0BD028B4FF6F3731A4049
:1051A0000283028B0A4302837047F0B50C46154612
:1051B00000210022068C4FF6FE773E400684018BCC
:1051C000028C4FF60C7631407E1C06EA03162E4305
:1051D00031434FF6F576324044F001063243018305
:1051E0000284F0BD70B505460C46208850B923896D
:1051F000A28861882846FFF7D8FFE1882846FFF794
:10520000CBFF25E0208804280AD12389A288618861
:105210002846FFF794FFE1882846FFF783FF17E051
:10522000208808280AD12389A28861882846FFF7A8
:1052300055FFE1882846FFF748FF09E02389A28847
:1052400061882846FFF719FFE1882846FFF708FF25
:1052500070BD002101804180012181800021C18039
:10526000018170472DE9F04105460C4600260127D3
:10527000608808B9022600E00026A088012801D134
:10528000022700E001272088A0B92389A28861882D
:105290002846FFF78AFFE1882846FFF77DFF23892C
:1052A0003A4631462846FFF74AFFE1882846FFF78D
:1052B00039FF13E02389A28861882846FFF73FFF62
:1052C000E1882846FFF72EFF23893A4631462846D3
:1052D000FFF76BFFE1882846FFF75EFFBDE8F0812E
:1052E0000146486B70470146886B70470146C86BA2
:1052F00070470146086C70470A884B881A438B88B0
:105300001A43CB881A430B891A434B891A438B895A
:105310001A43A0F844207047002101804180818019
:10532000C180018141818181704731B1B0F8442051
:1053300042F40042A0F8442005E0B0F84420C2F353
:105340000E02A0F84420704721B1828842F0040286
:10535000828004E082884FF6FB731A408280704797
:1053600021B1828842F00102828004E082884FF6F7
:10537000FE731A40828070471AB183890B43838180
:1053800002E083898B4383817047818270470246A4
:105390000020138A0B400BB1012000E00020704771
:1053A000CA430282704730B5024600200023002421
:1053B000158A05EA0103958905EA010413B10CB1C8
:1053C000012000E0002030BDCA430282704741EA5C
:1053D0000203A0F8483070471AB183890B438381D8
:1053E00002E083898B438381704721B1828842F038
:1053F0000802828004E082884FF6F7731A408280A8
:10540000704701894FF6F8721140018170470A46D2
:10541000002101894FF68F731940114301817047B4
:1054200030B504460D4629462046FFF7F0FF208997
:1054300040F00700208130BD2DE9F04104460D46C3
:1054400016461F46602D06D13B46012231462046B6
:10545000FFF775FE05E03B46012231462046FFF787
:10546000A4FE29462046FFF7D2FF208940F007001E
:105470002081BDE8F08130B50C4600210189C9B218
:105480004FF6FF7505EA032515432543294301819E
:1054900030BD2DE9F04105460E46174698460024DA
:1054A00043463A4631462846FFF7E5FF2C894FF63A
:1054B000F870044044F007044FF68F70044044F045
:1054C00070042C81BDE8F081F0B504460D46164607
:1054D0001F463B46324629462046FFF7CCFF20892F
:1054E00040F480402081F0BD82884FF68F731A40CF
:1054F000828082880A438280704702894FF6F8735F
:105500001A40028102890A430281704702894FF6DC
:105510007F731A40028102890A4302817047F0B505
:105520000C4615461E460021002200230189028BED
:10553000038C4FF6F877394021434FF6FC473A4049
:1055400040F201173A434FF6DD773B404FF6FF77C5
:1055500007EA06172F433B43018102830384F0BD12
:1055600021B1828842F08002828004E082884FF676
:105570007F731A4082807047A0F850107047000077
:1055800010B50446FE48844208D101218014FDF77D
:10559000BFFF0021A014FDF7BBFF3CE0F9488442A7
:1055A00008D101210014FDF7A2FF00212014FDF70E
:1055B0009EFF30E0F448844208D10121C013FDF77A
:1055C00096FF0021E013FDF792FF24E0EF488442AC
:1055D00008D101214014FDF79BFF00216014FDF765
:1055E00097FF18E0EA48844209D101210805FDF738
:1055F0008FFF00214FF48010FDF78AFF0BE0E54894
:10560000844208D101214805FDF782FF00214FF4B3
:105610000010FDF77DFF10BD10B50022028802F4D6
:1056200041520B884C8823438C882343CC882343E6
:105630000C8923434C8923438C892343CC892343FE
:105640001A430280838B4FF2FF74234083830B8ABB
:10565000038210BD2DE9F04F0025022300244FF0F6
:10566000010900220026002794469046B0F81CA0AD
:105670004FF2400B0AEA0B0AA0F81CA04FF0020AF6
:10568000A0F820A0858BD1F808A0BAF1020F01D1B3
:1056900000BF82E0B1F804A0BAF1000F02D14FF0D0
:1056A000010901E04FF00209DFF8ECA2DAF800A0EE
:1056B0000AF4000ABAF1000F09D0DFF8DCA2DAF828
:1056C00000A02AF4000ADFF8D0B2CBF800A0DFF87F
:1056D000C8A20AF17C0ADAF800A0CAF3881CDFF835
:1056E000B8A20AF17C0ADAF800A0CAF30278DFF85F
:1056F000A8A2AAF1040ADAF800A00AF03F07DFF82E
:1057000098A2AAF1040ADAF800A00AF4800ABAF50D
:10571000800F08D1DFF884A2BAFBF7FA0AFB0CFA73
:10572000BAFBF8F607E0DFF878A2BAFBF7FA0AFB53
:105730000CFABAFBF8F6B1F806A0BAF5007F0ED164
:105740004FEA162A0AEB8A0A4FEA4A0AD1F808B049
:10575000BAFBFBFA0AF1050A1FFA8AF20FE04FEAD8
:10576000491AB6FBFAFA0AEB8A0A4FEA4A0AD1F852
:1057700008B0BAFBFBFA0AF1050A1FFA8AF24FF0E9
:105780000A0AB2FBFAF202F00104A2EB040ACAF31D
:105790004F034FF6FF7A0AEA0424022B01DBFF2BAA
:1057A00001DD02230024B1F806A04AEA040A4AEA0D
:1057B000030AA0F820A0B1F804A0B1F80CB04AEA9E
:1057C0000B0AB1F802B04AEA0B0AB1F800B04AEA93
:1057D0000B0A4AF4006A4AEA05058583BDE8F08FA2
:1057E0000021018041808180C180018141818181CE
:1057F000C1810721018270470021018041808180A1
:10580000C1800221816000218181704721B102881D
:1058100042F04002028004E002884FF6BF731A4053
:105820000280704721B1828B42F48062828304E05F
:10583000828B4FF6FF331A408283704702884FF203
:10584000FF731A40028002880A4302807047B1F554
:10585000804F04D1028842F48042028004E0028832
:105860004BF6FF731A40028070474FF6FF62914279
:1058700004D0028842F48072028004E002884FF66D
:10588000FF631A400280704721B1828842F004020F
:10589000828004E082884FF6FB731A408280704752
:1058A00011B18288828001E082888280704730B5A1
:1058B00000220023848B4FF240052C408483022475
:1058C0000484828B0C88B4F5007F01D00C8814B955
:1058D0004FF4807308E00C88B4F5407F03D00C8847
:1058E000B4F5807F00D100238C888D892C434D88AE
:1058F0002C431C4344F400642243828330BD0146A0
:1059000088897047818170470246002013890B40C7
:105910000BB1012000E0002070472DE9F047074659
:105920000D4691461C464FF0010A2646A046012C22
:1059300004D1287838736D1C601E04B236E0BAF1C9
:10594000010F0BD156B102211148FFF7DDFF28B935
:1059500015F8010B3873761E4FF0000AB8F1000FEE
:105960000BD001210A48FFF7CFFF30B9B88909F8F9
:10597000010BA8F101084FF0010ABEB912E00000C6
:105980000030014000380040003C0040003401403D
:10599000005001400054014008380240001BB7008D
:1059A0000024F400B8F1000F00D101E0002CC6D1B2
:1059B00000BFBDE8F08721B1028842F400520280A6
:1059C00004E002884DF6FF731A4002807047018898
:1059D00041F480510180704702460020012901D026
:1059E000108B00E0908A70470146088A70471AB110
:1059F00083880B43838002E083888B4383807047D6
:105A000030B5002400230C110125A540ABB21AB11A
:105A100085881D43858002E085889D43858030BD53
:105A2000CA4302817047F0B50246002000240023DB
:105A3000002501F00F070126BE40B4B20B1101266C
:105A40009E40B3B2968806EA03051689264016B131
:105A50000DB1012000E00020F0BD10B5002201F0E2
:105A60000F040123A3409AB2D343038110BD000069
:105A7000FE4A1070704730B1FC49096841F48071EA
:105A8000FA4A116005E0F949096821F48071F74A82
:105A90001160704730B1F549096841F40071F34A6B
:105AA000116005E0F149096821F40071EF4A1160C5
:105AB000704730B1ED49096841F48061EB4A1160EB
:105AC00005E0EA49096821F48061E84A11607047FD
:105AD000E648006840F40060E44908607047E34825
