:020000040800F2
:10000000203C0120354E00086D0300086F030008F6
:1000100073030008770300087B030008000000005A
:10002000000000000000000000000000990200082D
:100030007F03000800000000F50200088137000877
:100040004F4E00084F4E00084F4E00084F4E00081C
:100050004F4E00084F4E00084F4E00084F4E00080C
:10006000810300084F4E00084F4E00084F4E000815
:10007000D10500084F4E00084F4E00084F4E0008B3
:100080004F4E00084F4E00084F4E00089D050008D7
:10009000090400084F4E00084F4E0008A303000853
:1000A0004F4E00084F4E00084F4E00084F4E0008BC
:1000B000B30500084F4E0008CF0E00084F4E000851
:1000C0004F4E00084F4E00084F4E00084F4E00089C
:1000D0004F4E00084F4E00084F4E00084F4E00088C
:1000E0004F4E00084F4E00084F4E00084F4E00087C
:1000F0004F4E00084F4E00084F4E00084F4E00086C
:100100004F4E00084F4E00084F4E00084F4E00085B
:100110004F4E00084F4E00084F4E00084F4E00084B
:100120004F4E00084F4E00084F4E00084F4E00083B
:100130004F4E00084F4E00084F4E0008870500083C
:10014000570400084F4E00084F4E00084F4E00085D
:10015000C30300084F4E00084F4E00089F1A0008C6
:100160004F4E00084F4E00084F4E00084F4E0008FB
:100170004F4E00084F4E00084F4E00084F4E0008EB
:100180004F4E00084F4E00084F4E00084F4E0008DB
:100190004F4E00084F4E00084F4E00084F4E0008CB
:1001A00000000000000000004F4E000800F002F8C0
:1001B00000F062F80AA090E8000C82448344AAF19F
:1001C0000107DA4501D100F057F8AFF2090EBAE89D
:1001D0000F0013F0010F18BFFB1A43F0010318477B
:1001E000F4EA000014EB00000A4410F8014B14F08C
:1001F0000F0508BF10F8015B240908BF10F8014B78
:100200006D1E05D010F8013B6D1E01F8013BF9D1C0
:10021000641E03D0641E01F8015BFBD19142E4D35C
:10022000704700000023002400250026103A28BF54
:1002300078C1FBD8520728BF30C148BF0B60704758
:1002400066290EF0F68364290BF0008775290BF000
:10025000FD8663290CF0BB82002070471FB50EF0AD
:10026000DEFB0CF0F5FA0400002000210DF090FDFB
:10027000E0601FBD10B510BD0CF0EEFB1146FFF79E
:10028000EDFF00F068F80CF00CFC03B4FFF7F2FF90
:1002900003BC03F0EBFA00002C4B19680868B0E8C7
:1002A000F04F80F30988BFF36F8F4FF0000080F3A9
:1002B000118870470000000008480068006880F35B
:1002C00008884FF0000080F3148862B661B6BFF36F
:1002D0004F8FBFF36F8F00DF00BF00BF08ED00E05E
:1002E000DFF80C00016841F470010160704700BF45
:1002F00088ED00E0EFF30980BFF36F8F134B1A68AE
:100300001EF0100F08BF20ED108A20E9F04F10609A
:1003100009B44FF0500080F31188BFF34F8FBFF343
:100320006F8F0AF0FDF94FF0000080F3118809BCCF
:1003300019680868B0E8F04F1EF0100F08BFB0EC65
:10034000108A80F30988BFF36F8F70478C010020FB
:10035000EFF3058070474FF4407004F08BFDB4203C
:1003600003F016FA03F0B4F800BFFEE7704700BFD1
:10037000FEE700BFFEE700BFFEE700BFFEE77047F5
:1003800010B5042008F02AF838B19A48006808B976
:10039000012000E0002097490860042008F029F8B7
:1003A00010BD08B54FF4807008F018F820B1694608
:1003B0009148006809F08AF94FF4807008F019F844
:1003C00008BD08B58D498E4806F0E3FA012816D11C
:1003D0008A498B4806F0F9FA8849894806F050FBAB
:1003E00069468848006809F071F9009838B14FF003
:1003F000805085490860BFF34F8FBFF36F8F8349EB
:100400007F4806F0E2FA08BD00B587B002218048B7
:1004100006F098F858B101AA00217D4805F00FFFB9
:10042000022306AA01A97B48006809F0D3F802213B
:10043000774806F022F97849754806F060F8069882
:1004400038B14FF0805070490860BFF34F8FBFF351
:100450006F8F07B000BD00B52DED088B85B0022170
:100460006E4806F06FF8002877D002216B4806F03E
:1004700004F96949694806F042F86A46002167486C
:1004800005F0DDFE40F203220098811A904255D01B
:1004900005DCA0F20120A8B301286ED13FE00129BC
:1004A0005CD0A1F2FE21002967D15D48DDF80B1078
:1004B00001609DF80F1001710146B1F902000DF0C5
:1004C000F4FE41EC1B0B9FED570B53EC102B0DF082
:1004D0003FFF41EC190B524890ED020A10EE101A42
:1004E00008460EF02BFA41EC1A0B53EC192B0EF0C8
:1004F0003BF941EC180B0DF06DFC49498860002078
:10050000C8603BE0FFE79DF80E109DF80D0041EA42
:10051000002000B245490880002088642EE09DF844
:100520000E109DF80D0041EA002000B23F49A1F8ED
:100530004C0000213D48C0F894101FE09DF80E10BB
:100540009DF80D0041EA002000B23849A1F898005A
:1005500000213648C0F8E01010E010E09DF80D00D2
:10056000000200B29DF80E1008433049A1F8E400E3
:1005700000212E48C0F82C1100BF00BF00BF05B0FD
:10058000BDEC088B00BD10B50121244805F0DAFF51
:1005900018B10121214806F070F810BD10B50121F5
:1005A0001B4805F0CFFF18B10121194806F065F886
:1005B00010BD10B50121880706F0EBFF38B101210D
:1005C000880706F0F7FF0121880706F0DFFF10BD5E
:1005D00010B51749174806F0DCF9012809D114496C
:1005E000144806F0F2F91249124806F049FA03F0ED
:1005F0006CF810BDAC0242425C0000200088002074
:10060000886402405800002004ED00E0000800204B
:1006100000640040800000200800003200680040B4
:10062000E4010020FCA9F1D24D62503F8C0400206F
:1006300000880010286002400CB500200190009056
:100640008348006840F480308149086000BF8048DA
:10065000006800F4003000900198401C0190009860
:1006600018B90198B0F5A04FF1D17948006800F4AD
:10067000003010B10120009001E0002000900098AF
:10068000012860D172484030006840F080507049C5
:10069000403108606F48006840F440406D49086090
:1006A0006B48083000686A490831086008460068ED
:1006B00040F4004008600846006840F4A05008601C
:1006C0006548091F0860081F006840F08070091F16
:1006D000086000BF5E48006800F000700028F9D094
:1006E0005C48006840F480305A49086000BF5948AF
:1006F000406800F480300028F9D05648006840F483
:1007000000305449086000BF5248406800F400308F
:100710000028F9D040F20570504908604C48083074
:10072000006820F003004A49083108600846006864
:1007300040F00200086000BF45480830006800F043
:100740000C000828F8D10CBD10B54548006840F4ED
:100750007000434908603E48006840F001003C4991
:10076000086000203A4908310860394800683D496E
:100770000840374908603C48091D0860081F0068A8
:1007800020F48020091F0860002031490C310860E6
:10079000FFF752FF4FF0006031498039086010BD0B
:1007A00070B500200022022300240221284D0835C4
:1007B0002D6805F00C0020B1042806D0082834D19B
:1007C00007E02A4D2A4E356033E02A4D284E356029
:1007D0002FE01F4D2D1D2D68C5F380541C4D2D1D80
:1007E0002D6805F03F0154B1224DB5FBF1F5184ECF
:1007F000361D3668C6F3881605FB06F209E01B4D68
:10080000B5FBF1F5124E361D3668C6F3881605FBAA
:1008100006F20F4D2D1D2D68C5F301456D1C6B00B3
:10082000B2FBF3F5124E356003E0104D104E35600B
:1008300000BF00BF064D08352D68C5F303150E4EE9
:10084000705D0B4D2D68C540094E356070BD0000D0
:1008500000380240007000400C5A4007003C024043
:1008600088ED00E0FFFFF6FE103000240024F400C5
:1008700000000020001BB70004000020D0ED000A9B
:10088000F4EEC00AF1EE10FA01DD80ED000AD0EDC1
:10089000000AB1EE401AF4EEC10AF1EE10FA03D2EA
:1008A000F1EE400AC0ED000A7047836342630163C2
:1008B00080ED000AC0ED010A80ED021A704780ED5C
:1008C000000AC0ED010A80ED021ADFED6B1AC0EDDF
:1008D000061ADFED691AC0ED071ADFED671AC0EDE1
:1008E000081ADFED651AC0ED091A704700B5034616
:1008F000881A00EE100AB8EEC00A83ED050A186BDC
:1009000003283ED193ED000AD3ED050A20EE200A1C
:1009100083ED060A93ED070AD3ED010A93ED051A5C
:1009200000EE810A83ED070A93ED050AD3ED040A70
:1009300030EE600AD3ED020A20EE200A83ED080AA9
:10094000D3ED0E0AF8EE600AB0EE600A03F11C0067
:10095000FFF794FF93ED060AD3ED070A30EE200A65
:10096000D3ED080A30EE200A83ED090AD3ED0D0A13
:10097000F8EE600AB0EE600A03F12400FFF77EFF94
:1009800042E0186B04283FD193ED050AD3ED040A29
:1009900030EE600AD3ED000A20EE200A83ED060A4D
:1009A00093ED010AD3ED050A20EE200A83ED070A34
:1009B00093ED050AD3ED040AB0EE001A01EE600AC9
:1009C000D3ED030A30EE200AD3ED020A20EE200A0E
:1009D00083ED080A93ED060AD3ED070A30EE200AEC
:1009E000D3ED080A30EE200AD3ED090A30EE200AD2
:1009F00083ED090AD3ED0D0AF8EE600AB0EE600A45
:100A000003F12400FFF73AFF93ED040A83ED030A94
:100A100093ED050A83ED040A93ED090A00BD2DE963
:100A2000F0412DED048B04460D4616461F46B0EEF0
:100A3000408AF0EE608AB0EE419A1048E0631048B8
:100A40002064B0EE491AF0EE680AB0EE480A3B4660
:100A5000324629462046D4F83CC0E047B0EE491A59
:100A6000F0EE680AB0EE480A2046216C8847BDECDB
:100A7000048BBDE8F081000000000000AB08000816
:100A8000BF0800081CB50121702004F08AFD4FF456
:100A90000060009001208DF8040000208DF8060011
:100AA00003208DF8050001208DF807006946FE48F7
:100AB00004F0D6FA4FF4804000906946FB4804F0F9
:100AC000CFFA1E2000906946F94804F0C9FA4FF4A5
:100AD000F07000906946F64804F0C2FA4FF4804185
:100AE000F24804F039FB4FF40061EF4804F034FBA6
:100AF0001E21EF4804F030FB4FF4F071EC4804F095
:100B00002BFB1CBD00B58BB00121402004F090FDF3
:100B10000121802004F045FD09220621E54804F06A
:100B20002AFB4020099002208DF8280003208DF830
:100B3000290000208DF82A0001208DF82B0009A93A
:100B4000DC4804F08DFA5920ADF818000020ADF80B
:100B50001A0040F6E66007900020ADF820008DF8FE
:100B6000220006A9D44806F05CF86020ADF8040025
:100B70000120ADF806000420ADF808000020039025
:100B8000ADF810000820ADF812004001ADF81400D7
:100B90000020ADF8160001A9C74806F0D7F80121DA
:100BA000C54806F0C7F80121C34806F0B4FC0BB0F5
:100BB00000BD00B585B00121022004F0F2FC012146
:100BC000880304F046FD0420039000208DF81000F7
:100BD00003208DF8110001208DF8130003A9B748F8
:100BE00004F03EFA0221012004F03FFE04200090B0
:100BF00000208DF804000C208DF8050001208DF8F0
:100C00000600684607F084FB08208DF808000620DF
:100C10008DF8090000208DF80A0001208DF80B00E6
:100C200002A804F02CF905B000BD1CB5012140203C
:100C300004F0B7FC4FF40050009001208DF8040040
:100C400000208DF8060003208DF8050001208DF8A6
:100C500007006946964804F003FA1CBD1CB5012143
:100C6000080204F09EFC0120009000208DF8040092
:100C700001208DF8070003208DF805006946904893
:100C800004F0EEF91CBD10B50446032C00DD10BDC8
:100C90000420A04081B2874804F060FA00BFF6E764
:100CA0001CB50121802004F07CFC3C200090012038
:100CB0008DF8040000208DF8060003208DF8050053
:100CC00001208DF8070069467A4804F0C9F900242C
:100CD00004E02046FFF7D7FF601CC4B2042CF8DB09
:100CE0001CBD10B50446032C00DD10BD0420A0403F
:100CF00081B2704804F030FA00BFF6E710B5044640
:100D0000032C00DD10BD0420A04081B2694804F02E
:100D10002EFA00BFF6E7704710B5FFF7B3FEFFF7F6
:100D2000F1FEFFF746FFFFF780FFFFF7B9FFFFF780
:100D300095FF10BD10B540F6B8305F4934310860FA
:100D400040F6E6605C492C310860962009F0AFFB64
:100D500040F6495058492C310860962009F0A7FB0D
:100D600040F6D63054492C310860962009F09FFB9C
:100D7000002051493431086010BD10B540F6B8303C
:100D80004D493431086040F6D6304B492C3108606B
:100D9000962009F08CFB40F6495047492C310860F9
:100DA000962009F084FB40F6E66043492C31086048
:100DB000962009F07CFB00203F493431086010BDCB
:100DC00010B540F6B8303C493431086040F6E66072
:100DD00039492C310860962009F069FB40F64950EA
:100DE00035492C310860962009F061FB40F6D63079
:100DF00031492C310860962009F059FB00202E491A
:100E00003431086010BD10B540F6B8302A4934318D
:100E1000086040F6E66028492C310860962009F009
:100E200046FB40F6E66024492C310860962009F024
:100E30003EFB40F6495020492C310860962009F0CD
:100E400036FB00201C493431086010BD1FB501215C
:100E5000042004F0EDFB312002905920ADF804008D
:100E60000020ADF80C00ADF806000121154805F092
:100E700043FF01A9134805F0D4FE0121114805F0F4
:100E800059FF012211460F4806F06CFB1E208DF819
:100E9000000004208DF8010000208DF802000120E0
:100EA0008DF8030068460FE0001002400014024075
:100EB00000180240001C02400018004000040240DC
:100EC000002002400008004003F0D9FF1FBD10B50C
:100ED00001210B4806F05DFB012804D10948006898
:100EE000401C084908600121054806F063FB10BD5D
:100EF00010B5002003490860FFF7A8FF10BD0000EF
:100F0000000800401400002000B597B00121022025
:100F100004F047FB0121102004F09BFB0121880510
:100F200004F03FFB8020159002208DF8580000202F
:100F30008DF85A0003208DF8590000208DF85B00D1
:100F400015A93A4804F08CF807221146374804F0F6
:100F500012F9374804F0C2FC364811900020ADF871
:100F60004800ADF84A004FF48060ADF84C00042012
:100F7000ADF84E000020ADF8500011A92C4804F047
:100F800014FD01212A4804F098FD0122402128483F
:100F900004F040FE44208DF8400006208DF841000A
:100FA00000208DF8420001208DF8430010A803F0C6
:100FB00066FF0021204805F08FFC00BF1E48006836
:100FC00000F001000028F9D11B4805F0A9FB4FF003
:100FD000006001901648001D029018480390002000
:100FE000049012200590002006904FF48060079036
:100FF0000020089009904FF480700A904FF4403020
:101000000B9000200C900D900E900F9001A90A48B3
:1010100005F028FC01221021074805F0EAFC012117
:10102000054805F059FC17B000BD0000000402405F
:1010300000100140A086010088640240F4010020F5
:1010400000B58BB00121084604F0F2FA01210846F0
:1010500004F0A7FA01220021364804F08CF801229E
:101060001146344804F087F801220221314804F087
:1010700082F8012203212F4804F07DF80F20099007
:1010800002208DF8280003208DF8290000208DF81B
:101090002A0001208DF82B0009A9264803F0E0FF63
:1010A00040F28330ADF818000020ADF81A0040F28D
:1010B000CF7007900020ADF8200006A94FF08040C7
:1010C00005F0AFFD6020ADF804000120ADF806008A
:1010D0000020ADF810006420039001A9000705F07E
:1010E00035FE01A94FF0804005F069FE01A94FF0DF
:1010F000804005F0B1FE01A94FF0804005F012FFDD
:101100000821C80605F0AFFF0821C80605F0B4FFA6
:101110000821C80605F0BDFF0821C80605F0C2FF7A
:101120000121880705F0E8FD0121880705F002FE8E
:101130000BB000BD0000024000B58BB00121480695
:1011400004F076FA0121082004F02BFA032009901C
:1011500002208DF8280003208DF8290009A9A34852
:1011600003F07EFF09220021A04804F004F80922C0
:1011700001219E4803F0FFFF14208DF82000052078
:101180008DF8210000208DF8220001208DF8230029
:1011900008A803F074FE13208DF8200005208DF8B8
:1011A000210000208DF8220001208DF8230008A8DE
:1011B00003F065FE8E4804F0BBFD05A804F0DCFEDC
:1011C00000208DF81A008DF81B008DF81C008DF89A
:1011D0001D008DF81E0001208DF81F0000208DF8E5
:1011E00016008DF8170005208DF8180007208DF8DF
:1011F00019000320ADF8140005A97D4804F0B1FDE5
:1012000000208DF80E008DF80F0001208DF81000E1
:101210000020ADF80400ADF80600ADF80800ADF808
:101220000A00ADF80C0001208DF8110001A804F0AF
:1012300022FE012202216E4805F01CF90BB000BD10
:1012400000B58BB00121480604F0F2F901218806AF
:1012500004F0EEF90121022004F0A3F94FF440500C
:10126000099002208DF828008DF8290009A961480D
:1012700003F0F6FE09220C215E4803F07CFF0922F0
:101280000D215C4803F077FF40208DF820000420FA
:101290008DF8210000208DF8220001208DF8230018
:1012A00008A803F0ECFD3F208DF8200006208DF803
:1012B000210000208DF8220001208DF8230008A8CD
:1012C00003F0DDFD4C4804F033FD05A804F054FEA6
:1012D00000208DF81A008DF81B008DF81C008DF889
:1012E0001D008DF81E0001208DF81F0000208DF8D4
:1012F00016008DF8170005208DF8180007208DF8CE
:1013000019000320ADF8140005A93B4804F029FD9D
:101310000E208DF80E0000208DF80F0001208DF8B2
:1013200010000020ADF80400ADF80600ADF808008C
:10133000ADF80A00ADF80C0001208DF8110001A8ED
:1013400004F099FD012202212B4805F093F80122B7
:101350001146294805F08EF80BB000BD10B5FFF717
:10136000EBFEFFF76DFF10BD2DE9F04186B006469C
:101370000D4614464FF00008019500208DF80C0032
:101380008DF80D0008208DF80E002088000A8DF8D9
:101390000F0021788DF810106088010A8DF8111067
:1013A000A1788DF81210A088010A8DF81310217908
:1013B0008DF81410E088010A8DF81510A1798DF8C8
:1013C000161001A9304604F045FE074600BF394615
:1013D000304604F0D7FE30B9404608F101084FF618
:1013E000FF718842F3DB06B0BDE8F081000C0240DB
:1013F00000640040000402400068004001460868A4
:10140000704701464948814201D200207047484850
:10141000814201D20820F9E74648814201D21020DA
:10142000F4E74548814201D21820EFE74348814262
:1014300001D22020EAE74248814201D22820E5E794
:101440004048814201D23020E0E73F48814201D24A
:101450003820DBE73D48814201D24020D6E73C48B6
:10146000814201D24820D1E73A48814201D250203E
:10147000CCE75820CAE72DE9F04704460E46174648
:101480004FF009080025A946B4F1006F02D304F01B
:10149000030008B1BDE8F08706F01EFC002006F04E
:1014A000FEFB254604EB87092B48854215D211E047
:1014B0002846FFF7A3FF401C58B12846FFF7A1FFBD
:1014C0008246022106F05CFC8046B8F1090F01D08B
:1014D00002E02D1D4D45EBD300BFB8F1090F0CD133
:1014E00008E02046316806F067FD092800D003E0D7
:1014F000241D361D4C45F4D300BF012006F0CFFB60
:1015000006F0F7FB00BFC5E730B503460C461546AD
:10151000002206E01846FFF771FF44F822001B1D69
:10152000521CAA42F6D330BD7047704700400008F5
:101530000080000800C00008000001080000020848
:1015400000000408000006080000080800000A085F
:1015500000000C0800000E080000FF1F1CB5012150
:10156000082004F01EF84FF44070009002208DF81F
:10157000040000208DF8060003208DF805000020EF
:101580008DF807006946494803F06AFD07220921E2
:10159000464803F0F0FD07220821444803F0EBFD24
:1015A0001CBD1FB50121880404F042F8404804F036
:1015B00095F94FF4E13000900020ADF80400ADF84B
:1015C0000600ADF808000C20ADF80A000020ADF8C8
:1015D0000C006946364804F0E8F90121344804F06B
:1015E0006CFA01224021324804F014FB1FBD08B5FB
:1015F0000C208DF8000000208DF8010003208DF8EC
:10160000020001208DF80300684603F038FC08BD95
:1016100000B58FB00121480503F0C3FF0021254824
:1016200005F05AF900BF23482838806A00F001000D
:101630000028F8D11F4805F073F84FF000600090C3
:101640001B48001D01901C480290002003900820B8
:101650000490002005904FF48060069000200790D1
:1016600008904FF4807009904FF440300A900020A9
:101670000B900C900D900E9069460E4805F0F2F814
:10168000012210210B4805F0B4F90121094805F0A9
:1016900023F90FB000BD10B5FFF760FFFFF781FF22
:1016A000FFF7A5FFFFF7B4FF10BD0000000C0240DC
:1016B00000480040286002408C07002000B597B029
:1016C0000121202003F0C5FF0121402003F069FF24
:1016D0000121880503F065FF08220921FE4803F077
:1016E0004AFD08220E21FC4803F045FD4FF400702E
:1016F000159002208DF8580003208DF85900002025
:101700008DF85A0001208DF85B0015A9F24803F00E
:10171000A7FCF24805F004F80021F04805F0DCF8D9
:1017200000BFEE4805F025F90028FAD14FF02060FF
:101730000190EB480290EB48039000200490782041
:101740000590002006904FF48060079000200890DC
:1017500009904FF480700A9000020B9000200C90CA
:1017600003200D9000200E900F9001A9DB4805F09A
:1017700079F80121D94805F0AFF8D948001F04F0E5
:10178000ADF84FF4E13011900020ADF84800ADF80D
:101790004A00ADF84C00ADF850000420ADF84E0002
:1017A00011A9CF48001F04F000F90121CC48001F07
:1017B00004F083F9002240F22661C948001F04F0BA
:1017C00032FA002240F22551C548001F04F02BFADE
:1017D000012240F22441C248001F04F024FA4720AD
:1017E0008DF8400003208DF841008DF84200012063
:1017F0008DF8430010A803F042FB01224021B848B5
:10180000001F04F007FA17B000BD10B50246002310
:1018100029E0002021E002EB8004D4ED000A441C02
:1018200002EB840494ED001AF4EEC10AF1EE10FA12
:1018300011DD02EB800494ED000A441C02EB8404E9
:10184000D4ED000A02EB8004C4ED000A441C02EB54
:10185000840484ED000A441CE0B24C1EE41A844265
:10186000D9DC5C1CE3B24C1E9C42D2DC10BD30B50E
:10187000034605E013F8010B80EA02049A48025D72
:10188000081EA1F10101F5D1104630BD70B5054625
:101890000C4600260DB1022C01D8002070BD611E3F
:1018A000FF222846FFF7E3FF0646601E285CB04291
:1018B00001D10120F2E70020F0E770B52DED028B99
:1018C0009FED8A0AB0EE408A894805F028F8C0F1F9
:1018D0007800C5B20024A4E08248005DA5282DD17F
:1018E000611D8048FFF7D2FF002827D07D49601C8A
:1018F000095C7C4AA01C105C41EA00207D49A1F8EB
:1019000001001146E01C085C7A49C8701146601D50
:10191000095CA01D105C41EA002000B27549C88036
:101920000846C08801280AD10846B0F801206D4B4E
:10193000E01D19186F4808300AF007FC70E06D4888
:10194000C088022813D16749E01D085C6949097CF9
:1019500060F30301674801746249E01D085C0020E0
:101960006449097C60F307116248017458E06148DA
:10197000C08803280AD15F48B0F80120594BE01D08
:1019800019185C4811300AF0E0FB49E05948C0885A
:1019900004280AD15748B0F80120524BE01D19180D
:1019A000544817300AF0D1FB3AE05248C088052865
:1019B0000AD15048B0F801204A4BE01D19184D4893
:1019C0002B300AF0C2FB2BE04A48C08806280AD117
:1019D0004848B0F80120434BE01D191845482D3008
:1019E0000AF0B3FB1CE04348C08807280AD14148ED
:1019F000B0F801203B4BE01D19183E482E300AF08C
:101A0000A4FB0DE03B48C088082809D13948B0F84C
:101A10000120344BE01D1918364830300AF095FB90
:101A2000641CAC42FFF458AF3248D0F81F00324972
:101A300048603048D0F81F003049314A127841F8E8
:101A400022002F480078401C2D4908700846007875
:101A5000052821D10020087001202A49087005219D
:101A60002648FFF7D2FE012409E0244800EB840059
:101A700090ED000A30EE080AB0EE408A641C032C98
:101A8000F3D9B0EE080AC8EE000A1B48C0ED060AFA
:101A90009FED160AB0EE408ABDEC028B70BD10B50A
:101AA000002400BF40F224410D48001F04F0F6F866
:101AB00060B30B48001F0488001D048800200D49F6
:101AC00008640021054804F007FFFFF7F6FE0E4901
:101AD000024804F07AFF1AE0001802404064024015
:101AE000041401400802002037EA0008000000004A
:101AF0008860024080020020C4020020FC02002016
:101B00001E0000201B000020400F001007E078217D
:101B10000D4804F002FF01210B4804F0DDFE00BF78
:101B200010BD70B505460C4600260DB1022C00D83C
:101B300070BD611EFF222846FFF799FE0646601E13
:101B40002E5400BFF4E700004064024000BFFB4891
:101B5000C068401CF949C860F9488069401CF849D0
:101B60008861F848D0F8A000401CF649C1F8A000F0
:101B7000F548D0F8A000401CF349C1F8A000F34894
:101B8000806C401CF1498864F148006C401CF049AD
:101B90000864002012E000EB400101EB0011ED4A67
:101BA00002EB8101896C491C00EB400202EB001240
:101BB000E84B03EB82029164411CC8B20428EADBC3
:101BC000DE48C0680A2808D30121E348006806F00F
:101BD00014FF0020E149086002E00120DF490860AD
:101BE000D74880690A2809D90221DB48006806F035
:101BF00004FF0020D949091D086003E00120D749EE
:101C0000091D0860CF48D0F8A0000A2809D904218E
:101C1000D148006806F0F1FE0020D0490831086084
:101C200003E00120CD4908310860C748D0F8A00082
:101C30000A2809D90821C848006806F0DEFE0020FD
:101C4000C6490C31086003E00120C4490C3108602A
:101C5000BE48806C0A280AD94FF48071BE480068DB
:101C600006F0CBFE0020BD491031086003E00120E2
:101C7000BA4910310860B648006C0A280AD94FF4F6
:101C80000071B548006806F0B8FE0020B34918316D
:101C9000086003E00120B1491831086000241CE00D
:101CA00004EB440000EB0410AA4901EB8000806CB7
:101CB0000A280CD9201D012202FA00F1A64800686A
:101CC00006F09BFE0020A5491431086007E00120C2
:101CD000A24914310860601CC4B2042CE0DB00BFD0
:101CE0000A2008F0E4FB32E71FB5002400BF08F02B
:101CF00026FF039000BF002269469948006807F05C
:101D00006AFD00219748006807F01CF8054605F0B9
:101D1000010000287DD08B48B0F908008949B1F94D
:101D20000610401A9049884207DA8648C088A0F514
:101D3000005000B28349488016E08248B0F908009C
:101D40008049B1F90610401A41F22C01884207DDA2
:101D50007C48C08800F5005000B27A49488003E012
:101D60007848C08877494880BDF8060088B975482A
:101D7000B0F908007349B1F90210401A4FF4B47178
:101D80004843400B6E21484300B2ADF802000024E6
:101D900056E04CBBBDF80600BDF8081010FB01F082
:101DA00000B2ADF802006748B0F908006549B1F922
:101DB0000210401A00EE100AB8EEC00ADFED6B0AFE
:101DC00020EE200A9FED6A1AC0EE010ABDF9060056
:101DD000404200EE100AB8EEC00AF4EEC00AF1EE7E
:101DE00010FA2DD801242BE0012C29D1BDF80600D2
:101DF0004042BDF80810484300B2ADF80200514817
:101E0000B0F908004F49B1F90210401A00EE100A6B
:101E100000E047E0B8EEC00ADFED540A20EE200AE9
:101E20009FED531AC0EE010ABDF9060000EE100A3C
:101E3000B8EEC00AF4EEC00AF1EE10FA00DB00249E
:101E4000BDF80000BDF802100844BDF804100844B5
:101E500000B240494880BDF800004042BDF8021081
:101E60000844BDF80410084401B23A48A0F84E10E6
:101E7000BDF80000BDF802100844BDF80410401A77
:101E800001B23448A0F89A10BDF800004042BDF8F5
:101E900002100844BDF80410401A01B22D48A0F801
:101EA000E6100AE000202B49488000212948A0F8CC
:101EB0004E10A0F89A10A0F8E610082103A808F028
:101EC00092FA18E700BF4FF0FF312A48006807F088
:101ED00053FA294802F02AFAF5E786B000BF4FF01E
:101EE000FF3201A92548006807F075FC00BF00BF5C
:101EF000F5E786B000BF4FF0FF3201A92048006827
:101F000007F069FC0198A0F20120072876D2DFE8EB
:101F100000F004394D6176889A009DF812109DF802
:101F2000110041EA002000B20A49088000208864BC
:101F300010210948006806F005FF97E0E401002041
:101F400038070020BC050020600600204004002067
:101F50008002002010030020780000208402434209
:101F60008C00002074000020D4EFFFFF0000B44379
:101F7000000000465C0000200407002084000020D0
:101F8000800000209DF812109DF8110041EA002009
:101F900000B2FB49A1F84C000021F948C0F89410A8
:101FA0002021F848006806F0CDFE5FE09DF8121091
:101FB0009DF8110041EA002000B2F149A1F8980013
:101FC0000021EF48C0F8E0104021EE48006806F01C
:101FD000B9FE4BE09DF812109DF8110041EA002077
:101FE00000B2E749A1F8E4000021E548C0F82C114F
:101FF0008021E448006806F0A5FE37E035E09DF852
:1020000010009DF80F1040EA012000B2DE49C880A0
:102010000020C1F8A0000421DA48006806F092FE12
:1020200024E09DF810009DF80F1040EA012000B256
:10203000D649C8800020C1F8A0000821D148006816
:1020400006F080FE12E09DF812109DF8110041EAA2
:10205000002000B2CE490880002088644FF48071CF
:10206000C848006806F06EFE00E000BF43E7014686
:1020700048888880C8884880B1F90200B1F90420F6
:10208000801AC44A904203DA0888401C00B20880D3
:10209000B1F90200B1F90420801A41F22C029042F9
:1020A00003DD0888401E00B20880B1F90200B1F9D2
:1020B0000020C2EB4232104470472DED028B84B0F9
:1020C0004FF0000800BF00BF0027B946BA46002005
:1020D00008EE100A08EE900A00BF08F030FD0190EB
:1020E0000221AD48006806F088FC0821AA48006873
:1020F00006F083FC00BFA94890ED050AB1EE400A46
:10210000BDEEC00A10EE100A00B29F49A1F85400BB
:10211000A24890ED040ABDEEC00A10EE100A00B20B
:102120009A49A1F85400002202A99D48006807F0CE
:1021300052FB9C4890ED000AB5EEC00AF1EE10FA91
:1021400005D020219448006806F057FC04E02021C7
:102150009148006806F0F6FDB8F1000F7DD18A487D
:10216000B0F908008849B1F90610401A8949884237
:1021700007DA8548C088A0F5005000B2824948803F
:1021800016E08148B0F908007F49B1F90610401AFD
:1021900041F22C01884207DD7B48C08800F50050E1
:1021A00000B27949488003E07748C0887649488082
:1021B0007648B0F908007549B1F90610401A75491A
:1021C000884207DA7148C088A0F5005000B26F4914
:1021D000488016E06D48B0F908006C49B1F9061066
:1021E000401A41F22C01884207DD6848C08800F59A
:1021F000005000B26549488003E06448C0886349E4
:102200004880614909894FF4B47211FB02F0C1178B
:1022100000EBD14149135C4A5181114649884FF482
:10222000B47211FB02F0C11700EBD1414913564AB9
:102230009181564909894FF4B47211FB02F0C1171C
:1022400000EBD1414913514A5181114649884FF45D
:10225000B47211FB02F0C11700E038E000EBD1418D
:1022600049134A4A91814848408947498989401A17
:1022700005B21046408911468989401A06B2291EC6
:1022800001DB0A4600E04A42052A1FDA301E01DB64
:10229000024600E04242052AF7DA4FF001089FEDBE
:1022A000420A424880ED020A9FED3F0A3B4880ED1A
:1022B000070A0020354908800846C0884880002069
:1022C000888001213448006806F097FBAEE033486F
:1022D00090ED070AB1EE400ABDEEC00A10EE100AFA
:1022E00000B2294988812948FFF7C1FE4FF4B47133
:1022F00000FB01F3D81703EBD040401300B2234991
:10230000888100212448006806F01CFD044604F082
:10231000100010284CD107F0100028B91A48B0F965
:102320000A901A48B0F90AA004F0200020281AD117
:102330000120154948811B4890ED000ABDEEC00AF6
:1023400010EE100A00B2888101201049488115481A
:1023500090ED010AB1EE400ABDEEC00A10EE100A7F
:1023600000B2888161E007F0200020285DD1064896
:10237000808905494881054880890449488154E09D
:102380001003002078000020BC050020600600201B
:1023900040040020D4EFFFFF740000200407002059
:1023A000880000207807002000000000E4010020E1
:1023B00007F0100010280DD1FD488089A0EB09001E
:1023C00000B208EE100AFB488089A0EB0A0000B2B8
:1023D00008EE900A9DED030AF8EEC80A30EE200AD6
:1023E000BDEEC00A10EE100A00B2F14948819DED21
:1023F000020AF8EEE80A70EE200AEE48B0F908008A
:1024000000EE100AB8EEC00A30EE800ADFEDEA0AEC
:1024100020EE200ADFEDE90A80EE201ABDEEC10AA7
:1024200010EE100A00B2E34948812746082101A8AE
:1024300007F0D9FF5FE62DED048B88B0002403225E
:102440000021012006F0AEFDDD49086003220021D5
:10245000012006F0A7FDDB49086000BF4FF0FF3107
:10246000D748006806F088FF0321D748006806F0C7
:1024700069FCD648006807F0E9FD0220D4490870DD
:10248000FEF77BFC00BFD34802F030FBD14801F0DF
:102490004DFF641CCF4890ED030A10EE101A084659
:1024A0000CF04CFA41EC190BB0EE490AF0EE690A57
:1024B0000BF02AFBB0EE408AF0EE608A9FEDC60B6F
:1024C00053EC102B51EC180B0CF040F8DBD3C14847
:1024D00090ED050A10EE101A08460CF02FFA41ECA8
:1024E000190BB0EE490AF0EE690A0BF00DFBB0EEE5
:1024F000408AF0EE608A9FEDBA0B53EC102B51EC42
:10250000180B0CF023F8BED30A2CBCDBFEF77BFCC7
:102510000120AF490870811EAA48006806F02CFF10
:102520000220AB490870A248C088A1490881A1488F
:10253000C088A0490881142103A809F085FE9C48A1
:10254000B0F9060003909B48B0F906000490A1483A
:10255000406A05909F48C06A06909E48806A07902E
:10256000052203A9A048FEF786FFFEF729FC0020FC
:1025700097490870954804210023CA01CDE900104D
:102580009AA19F4807F014FD68E7014639B39D4AB8
:10259000B2F9E420642A0EDA9B4A1268521C9A4B64
:1025A0001A601A461268502A05DD0122974B1A70EC
:1025B0000022954B1A60954A1278012A0FD1944A4D
:1025C0001268521C924B1A6092491A4612680A2AE3
:1025D00005DD00228D4B1A708D4B1A600146894A29
:1025E000A2F8E6107047014639B3864AB2F998203E
:1025F000642A0EDA884A1268521C874B1A601A46FF
:102600001268502A05DD0122844B1A700022824B89
:102610001A60824A1278012A0FD1814A1268521C2C
:102620007F4B1A607B491A4612680A2A05DD002290
:102630007A4B1A707A4B1A600146724AA2F89A10C5
:102640007047014639B3774AB2F90020642A0EDA9E
:10265000754A1268521C744B1A601A4612681E2A78
:1026600005DD0122714B1A7000226F4B1A606F4A10
:102670001278012A0FD16E4A1268521C6C4B1A60F4
:1026800064491A4612680A2A05DD0022674B1A704F
:10269000674B1A600146634A5180704708B500BF16
:1026A00008F04DFA009000BF00216248006806F073
:1026B00049FB0446002C78D0012C77D0022C4BD05B
:1026C000032C74D101205C4908609FED5C0B53EC36
:1026D000102B5C4890ED000B51EC100B0BF0ACFB99
:1026E000584A03C29FED580B53EC102B554890ED00
:1026F000000B51EC100B0BF029FF04D89FED520B8F
:10270000504880ED000B4F4890ED000B51EC100B42
:102710000BF09EFD4FF08041886348634EF68420A5
:102720003849488041F27C513648A0F84E104FF4A9
:102730006170FFF786FF4FF40760FFF754FF4448CE
:102740000068012804D14FF43470FFF71EFF02E047
:102750000020FFF71AFFF0E00120374908609FEDE5
:10276000370B53EC102B374890ED000B51EC100B4E
:102770000BF062FB334A03C29FED330B53EC102B7B
:10278000304890ED000B51EC100B0BF0DFFE04D83D
:102790009FED2D0B2B4880ED000B2A4890ED000B90
:1027A00051EC100B0BF054FD54E0A2E066E0C3E0E6
:1027B000BC050020600600200000B4430000004675
:1027C000680000206C000020740000204C000020F5
:1027D00021000020040700209A9999999999B93FFE
:1027E0007B14AE47E17A843F0000060867696D629A
:1027F000616C436F6E74726F6C7461736B00000078
:10280000BB2000088C040020D0000020D80000204D
:10281000D400002024FAFFFFC4000020CC000020D8
:10282000C800002040040020B8000020C0000020A4
:10283000BC00002070000020B40243423333333325
:102840003333C33F980000200000000000405A408E
:10285000000244424FF08041886348634EF678405E
:10286000FD49488041F28831FB48A0F84E10002015
:10287000FFF7B9FE0020FFF788FE5EE00120F74970
:102880000860F74890ED000B51EC100B0BF0E0FCEA
:102890004FF08041886348634EF67840EE494880A7
:1028A00041F28831EC48A0F84E104FF46170FFF708
:1028B000C8FE4FF40770FFF796FEEA48D0F8000212
:1028C00001280CD14FF46170FFF7BBFE4FF4077085
:1028D000FFF789FE4FF43470FFF757FE08E0002041
:1028E000FFF7AFFE0020FFF77EFE0020FFF74DFE52
:1028F00023E00120D94908609FEDDB0BD84880ED2B
:10290000000B90ED000B51EC100B0BF0A1FC4FF005
:102910008041886348630020CF4948800021CE4829
:10292000A0F84E100020FFF78CFE0020FFF75BFEA2
:102930000020FFF72AFE00E000BF00BF1421684618
:1029400007F051FDB0E61CB503220021012006F07E
:1029500029FBC749086003220021012006F022FB61
:10296000C449086000BF4FF0FF31C148006806F05D
:1029700003FDC148006807F069FB0120BF490870EA
:10298000FEF7FBF9C820C106486388634FF0FF31AA
:10299000B848006806F0F0FC0220B8490870FEF75D
:1029A0000FFAFA2004E04FF0804148638863401E2C
:1029B0006428F8DA0020B1490870AF4803210023E9
:1029C0004FF40072CDE90010ADA1B04807F0F0FA65
:1029D000C9E7002500BF4FF0FF31AD48006806F0A1
:1029E000CBFC0020AB4988610221AB48006806F0AF
:1029F000A9F9AA480078A949497840EA0120A549DF
:102A0000898B40F2FF72511A084000B2A149088038
:102A1000A2484078C010A149897840EA4110C0F32B
:102A20000A009C4948809D48807880119B49C9785C
:102A300040EA81009949097940EA8120C0F30A00FF
:102A4000944988809548007940109449497940EA32
:102A5000C110C0F30A008F49C88090484079001126
:102A6000800808728D484079C0F3011048728B4885
:102A700080798A49C97940EA012000B285494881B4
:102A80008648007A8549497A40EA012001B28148A6
:102A900081818248807A8149C97A40EA012001B265
:102AA0007C48C1817D48017B7A4801747B48417B29
:102AB000784841747948807B7849C97B40EA012194
:102AC0007448418290F9090001287CD0022802D084
:102AD000032879D193E06F48408A012804D141F25C
:102AE00088306F4908801EE06A48408A022804D175
:102AF0004EF678406A49088015E06648408A042806
:102B000004D14EF68420664988800CE06148408AF2
:102B1000082804D141F27C506149888003E00020FC
:102B20005F49888008805B48408A402805D1322070
:102B30005B49C8803C20088107E05648408A8028CD
:102B400003D100205649C88008815248408A102885
:102B500005D110215348006805F04FFF08E04D48AB
:102B6000408A202804D110214E48006806F0EAF877
:102B700000214C48006806F0E5F804464548007C12
:102B8000012805D101214848006805F036FF04E01E
:102B900001214548006806F0D5F802214248006846
:102BA00005F02BFF04213F48006805F026FF04F0E4
:102BB000100018BB3A4890ED040A3648B0F90A00F4
:102BC00000EE900A01E0B1E0C5E0F8EEE00A9FED0A
:102BD000371A00EEC10A324880ED040A90ED030A6C
:102BE0002C48B0F90C0000EE900AF8EEE00A9FEDD8
:102BF000301A00EE810A2A4880ED030AACE025482D
:102C00000088A0F5806000EB8000400000B22449FD
:102C1000888020484088A0F5806000EB800040005C
:102C200000B208800020C88004F0100098B908465F
:102C300090ED040A1748B0F90400A0F5806000EE9A
:102C4000900AF8EEE00A9FED1B1A00EEC10A084652
:102C500080ED040A30E041E08C040020B4024342DD
:102C6000980000200000444200000000000059408D
:102C700060000020640000203000002020000020C0
:102C800063616C697461736B000000009D2600082D
:102C9000580000203807002078000020F4010020B0
:102CA000640700207400002070000020295C8F3D24
:102CB0006666E63FA69B443B90ED030AFE48B0F9EA
:102CC0000600A0F5806000EE900AF8EEE00A9FEDA5
:102CD000FB1A00EE810A084680ED030AF648007AE6
:102CE000012805D10321F648006806F02BF817E00B
:102CF000F148007A03280AD10221F148006805F062
:102D00007CFE0121EE48006806F01CF808E0EA4865
:102D1000007A022804D10321E948006805F06DFE1D
:102D20000421E848006805F068FE15E00020E64947
:102D30008880088048800321E148006806F002F896
:102D40000421E048006805F0FDFF0821DD48006827
:102D500005F053FE00E000BF00BFDB4890ED030A22
:102D6000B5EEC00AF1EE10FA00D10125012D1CD1FB
:102D7000D54890ED030ADFEDD50AB4EEE00AF1EE96
:102D800010FA04DD9FEDD10A80ED030A0DE0CE4874
:102D900090ED030ADFEDCE0AB4EEE00AF1EE10FA90
:102DA00003D29FEDCB0A80ED030A02230022C6491D
:102DB000C848006806F0B0F902230022C2490C316D
:102DC000C548006806F0A8F9BB48B0F90000B0F5A6
:102DD000B67F0FD1B848B0F90600B0F5B67F09D17B
:102DE000BE48007830B900231A461946BC4800682E
:102DF00006F092F9B048B0F9000040F294618842C0
:102E000010D1AD48B0F90600B0F5B67F0AD1B3488D
:102E10000078012806D100231A461946B1480068F7
:102E200006F07AF9A448B0F90000B0F5B67F10D1E9
:102E3000A148B0F9040040F29461884209D1AA483F
:102E4000007830B900231A461946A848006806F0F1
:102E500063F99948B0F9000040F2946188427FF428
:102E6000BAAD9548B0F90400B0F5B67FF7D19E48E9
:102E700000780128F3D100231A4619469C480068BF
:102E800006F04AF9A7E508B54FF00008C14600254D
:102E9000002600BF07F053FE0090B0EE081AF7EED0
:102EA000000AB1EE0C0A4FF47A73DA00042191485B
:102EB000FDF7B5FD002415E004EB440101EB04111E
:102EC0008D4A02EB8101081DB7EE001ADFED7B0A87
:102ED000B0EE000A4FF47A73DA000421FDF79FFD8B
:102EE000601CC4B2042CE7DB002415E004EB4401B1
:102EF00001EB0411814A02EB8101081DB7EE001AB3
:102F0000DFED6E0AB0EE080A4FF47A73DA0004219E
:102F1000FDF785FD601CC4B2042CE7DB9FED781A39
:102F2000DFED770AB1EE040A4FF47A739A000321B9
:102F30007448FDF774FD9FED721ADFED710A9FED85
:102F4000720A4FF47A635A0003216E484830FDF745
:102F500066FD9FED6E1ADFED6D0A9FED6D0A4FF471
:102F60007A7341F2707203216A48FDF758FD9FEDB4
:102F7000641ADFED630AB3EE0E0A4FF4FA6341F20E
:102F80009412032163484830FDF749FD00BF00213A
:102F90004C48006805F0D6FE074607F008000828F0
:102FA0004ED1281D05B206F1140006B2642159481D
:102FB00010388164C0F89010524810388164C0F80D
:102FC000901041F29410854200DB054647F23050E4
:102FD000864200DB06464B481038C0F88C604D48EE
:102FE0001038C0F88C5041F29410854228DB47F22B
:102FF0003050864224DB08213248006805F0A2FEEA
:1030000040481038C0F88C6042481038C0F88C50E6
:1030100047F230513B481038416441F288313D4815
:10302000103841646421816440F6AC51C0F89010BE
:10303000C8213448103881644FF4FA61C0F8901008
:1030400034481038B0F90C20B0F90A101030FDF7F0
:103050004DFCBDEEC00A10EE100A0FFA80F92D48A3
:103060001038A0F85690B0F95420B0F956105830E6
:10307000FDF73CFCBDEEC00A10EE100A00B2264976
:10308000488020481038B0F90C20B0F90A101030F0
:10309000FDF72CFCBDEEC00A10EE100A0FFA80F806
:1030A00018481038A0F85680B0F95420B0F95610DE
:1030B0005830FDF71BFC31E038070020CDCCCC3D6B
:1030C0007000002074000020640700200000F2431C
:1030D0000000F2C38C0000208800002020000020A7
:1030E0006000002064000020210000206800002013
:1030F0006C00002044040020100300208C040020F9
:1031000000000000CC0500200000484300000080C3
:103110006666A6C070060020A0000020BDEEC00AB2
:1031200010EE100A00B2F1490880F148B0F9002011
:10313000B0F90210001DFDF7D9FBBDEEC00A10EE7C
:10314000100A00B2E9498880002422E004EB44031D
:1031500003EB0413DFF89CC33CF9232004EB440386
:1031600003EB04130CEB8303B3F9021004EB4403E9
:1031700003EB04130CEB8303181DFDF7B7FBBDEE47
:10318000C00A10EE100A00B2DB4921F81400601CDE
:10319000C4B2042CDADB002422E004EB440303EB8A
:1031A0000413DFF858C33CF9232004EB440303EB7A
:1031B00004130CEB8303B3F9021004EB440303EB99
:1031C00004130CEB8303181DFDF790FBBDEEC00A42
:1031D00010EE100A00B2CA4921F81400601CC4B2F3
:1031E000042CDADB07F0060006280FD000200BE0E5
:1031F0000021BE4A22F81010BF4A22F81010C04A1F
:1032000022F81010411CC8B20428F1DBB74A40F282
:10321000FF11BC48FEF7A8F8B74A4FF40071B9484F
:10322000FEF7A2F8B64A4FF40071B748FEF79CF8D3
:103230000421684607F0D7F8A9E688B0FDF76CFDD1
:10324000FDF7FEFEFDF760FE4FF4E13000F01EFBDF
:10325000FEF784F8FEF71FFAFEF730FAA421AB4818
:1032600008F0F2FFA421A94808F0EEFF002508E0CD
:103270002846FDF736FD40F2C52000F0A6FA681C8E
:10328000C5B2042DF4DB01F0C3F8142103A808F043
:10329000DBFF052203A99E48FEF736F9039800B22A
:1032A0009A490881049800B29A4908819A49059878
:1032B00048620698C86207988862642007F0F7F8A9
:1032C000002400BF9548B0F90200B0F5806F2AD104
:1032D000642007F0ECF8601CC4B2282C25DB8F4872
:1032E000B0F90000A0F580608C49C8610024FDF7AA
:1032F00021FD8B48052100234FF40072CDE9001019
:10330000AFF61831874806F053FE874806210023A0
:103310008022CDE9001085A1894806F049FE0020F1
:1033200006F094FE01E0FDF7EFFD322007F0BFF854
:10333000C8E72DED028B82B005F0AFFA0022012123
:10334000084605F02FFE7F49086000221421012065
:1033500005F028FE7C49086000221421012005F0B8
:1033600021FE7A49086000220821012005F01AFE9A
:103370007749086000220A21012005F013FE7549F3
:10338000086003220021012005F00CFE724908604C
:1033900003220021012005F005FE7049086005F0B8
:1033A0001FFB6F49086005F01BFB6E49086005F0C4
:1033B00017FB6D4908606D48042100238022CDE988
:1033C00000106BA16D4806F0F3FD6D480621002347
:1033D0004FF48062CDE900106AA16D4806F0E8FD67
:1033E0006C48032100234FF40072CDE900106AA15C
:1033F0006E4806F0DDFD6E48042100238022CDE9F1
:103400000010AFF284716B4806F0D2FD6A480721C4
:1034100000238022CDE9001068A16B4806F0C8FDAA
:103420006A48052100234FF49672CDE9001068A187
:103430006B4806F0BDFD6B48052100234FF49672E2
:10344000CDE9001068A16C4806F0B2FD6B4805217B
:1034500000238022CDE9001069A16D4806F0A8FD87
:103460006C48032100234FF40072CDE900106AA1DB
:103470006D4806F09DFD6D48032100234FF4007256
:10348000CDE900106AA16F4806F092FD05F02CFA14
:1034900000BF6D48D0F8131008460BF04FFA41EC0E
:1034A000180B6948807C53EC182B009067A008F03B
:1034B0004FFD6B480178002000F0E0F84FF48041A8
:1034C000684801F054FE4FF4FA7006F0F0FFE0E7B0
:1034D0001CB5654802210023C822CDE9001063A174
:1034E000654806F065FD07F0DDFA1CBDA000002070
:1034F0004004002010030020A80000208C040020BD
:10350000B00000200064004000680040BC050020BE
:10351000000006086006002004070020380700208D
:103520004C000020BB2000084400002050494443C8
:10353000616C63756C6174655461736B00000000AD
:10354000872E00087C0000208000002084000020DE
:10355000880000208C000020580000205C00002023
:10356000700000207400002078000020400000203F
:10357000627370696E69747461736B003B3200082A
:1035800024000020646275737461736B0000000096
:10359000D3290008300000206672694D6F7465728F
:1035A000436F6E74726F6C7461736B009D260008BC
:1035B0002C0000204729000850000020696D756329
:1035C000616C697461736B0037240008340000205B
:1035D00043616E31526563656976657461736B0032
:1035E000F31E00083800002043616E3252656365A7
:1035F0006976657461736B00DB1E00083C00002077
:10360000494D55526563656976657461736B000059
:10361000C51E000848000020434D436F6E74726F52
:103620006C7461736B000000E91C000854000020FA
:103630004F66666C696E6564657465637474617306
:103640006B0000004D1B0008800200207370656550
:10365000643A25662020206672653A25640D0A00CA
:103660009000002000140240280000207374617252
:10367000745F7461736B00003333000870B50446E7
:103680000D46FF2037490870084644708570FE20BB
:10369000C87000203449087012E000BF4021334850
:1036A00002F0E6FA0128F9D12E482F4A1278815CFF
:1036B0002E4802F02DFA2C480078401C2A49087048
:1036C000294800780428E8DB70BD002000BF10E026
:1036D0002749095CFF290BD1254AC11D515CFE29F0
:1036E00006D1411C1144234A0B68136089889180DC
:1036F000401C0A28ECDB1F49B1F9001000EE101A3B
:10370000B8EEC00AB1EE400ADFED1B0A80EE201AC7
:103710001A4981ED001A1749B1F9021000EE101A8A
:10372000B8EEC00AB1EE400ADFED130A80EE201AAF
:10373000124981ED011A0F498988104A11811146F9
:103740000989012904D1114691ED010A81ED010A8F
:103750000A490989022904D1084991ED010A81ED3C
:10376000010A7047DF000020E3000020004800400D
:103770008C070020D90000200000C84278070020F4
:1037800010B507F058FC012801D005F0C9F810BDAC
:1037900070B50446042001F0BFFB32480470254692
:1037A0004FF47A70454301202F4908804FF0E02004
:1037B000006940F002004FF0E021086108464561D1
:1037C000006940F00100086170BD70B50346002239
:1037D0004FF0E0267569234E367803FB06F44FF070
:1037E000E026B16910E04FF0E026B06988420BD0C6
:1037F000884202D20E1A324402E02E1A0E4432449B
:103800000146A24200D300E0EDE700BF70BD70B5F5
:10381000044607F010FC012811D0134800888442A8
:1038200006DB1148008894FBF0F5284606F03FFEC1
:103830000D48008894FBF0F100FB114084B24FF476
:103840007A7104FB01F0FFF7C0FF70BD30B504468C
:10385000002504E04FF47A70FFF7B7FF6D1CA54216
:10386000F8D330BDE4000020E6000020014600BF90
:1038700000207047C2B2254B1A8000BF234A121F96
:10388000128802F04002002AF8D0704710B586B0C6
:1038900004460121082001F084FE0121480401F0C2
:1038A000C7FE072205211A4801F065FC0722062100
:1038B000174801F060FC02208DF814008DF8150007
:1038C00000208DF8160001208DF81700602004906C
:1038D00004A90F4801F0C4FB00940020ADF80400D7
:1038E000ADF80600ADF80800ADF80C000C20ADF8FE
:1038F0000A0069460548001F02F057F801210348F5
:10390000001F02F0DAF806B010BD000004440040C9
:10391000000C0240F0EE400AF6EE001A60EEA11A2A
:10392000B0EE611AB0EE600A10EE100AFE49A1EB8B
:10393000600000EE100A21EE002AF7EE081A42EEAF
:10394000401A61EE801AB0EE610A704730B587B058
:103950000546F64A0DF11A0006A9031FCDE901023A
:10396000009105AA891F04A800F0B7FF00241DE0FC
:10397000032C0BDA04A830F9140000EE100AB8EE9C
:10398000C00A05EB840080ED000A0EE004A830F9BF
:10399000140000EE100AB8EEC00ADFEDE50A80EE72
:1039A000201A05EB840080ED001A641C062CDFDB76
:1039B00007B030BD00B52DED108B9BB0F0EE40AAE6
:1039C000B0EE60BAF0EE41BAB0EE61DAB0EE42CAE3
:1039D000F0EE62CAB0EE43AAF0EE638AB0EE449A0B
:1039E000D44890ED000AD0ED000A20EE200A8DEDBB
:1039F0000B0A90ED000AD048D0ED000A20EE200A14
:103A00008DED0A0ACB4890ED000ACC48D0ED000AB3
:103A100020EE200AF0EE40EAC64890ED000AC848C1
:103A2000D0ED000A20EE200A8DED090AC24890ED83
:103A3000000AD0ED000A20EE200A8DED080A90ED74
:103A4000000ABE48D0ED000A20EE200A8DED070ADC
:103A5000B94890ED000ABA48D0ED000A20EE200ADD
:103A6000B0EE40FAB54890ED000AD0ED000A20EE25
:103A7000200A8DED060A90ED000AB148D0ED000A4B
:103A800020EE200A8DED050A90ED000AD0ED000A27
:103A900020EE200A8DED040A01F0EDF8A949086036
:103AA00008460068A8490968884210D2A6480068FC
:103AB0004FF6FF71081AA3490968084400EE100A7E
:103AC000B8EE400ADFEDA10AC0EE209A0CE09D4856
:103AD00000689D490968401A00EE100AB8EE400AD5
:103AE000DFED9A0AC0EE209A964800689649086071
:103AF0006DEE0D0A4CEE0C0A4CEEAC0AB0EE600A0C
:103B0000FFF708FFB0EE408A2DEE080AB0EE40DA6B
:103B10002CEE080AB0EE40CA2CEE880AF0EE40CA3D
:103B20006AEE0A0A48EEA80A49EE090AB0EE600AEF
:103B3000FFF7F0FEB0EE408A2AEE080AB0EE40AA87
:103B400028EE880AF0EE408A29EE080AB0EE409A84
:103B5000B0EE000A6AEE000A9DED060AB6EE001A03
:103B600031EE401A9DED040A31EE400A20EE800A43
:103B7000F0EE000A68EEA01ADDED070A9DED091AC5
:103B800070EEC10A01EEA00AF0EE000A69EE200A0A
:103B90003FEE2E1A00EE810A8DED1A0AB0EE000AF1
:103BA0002AEE001A9DED070ADDED090A30EE200A23
:103BB00021EE000AF0EE000A28EEA01ADDED080A58
:103BC000F6EE001A71EEE01ADDED040A71EEE00A7D
:103BD00001EE200AF0EE000A69EE201ADDED050A7A
:103BE0009DED0A1A70EEC10A01EEA00A8DED190AC8
:103BF000B0EE000A2AEE000A7FEE6E0A20EE200ADE
:103C0000F0EE000A68EEA01ADDED050A9DED0A1A35
:103C100070EE810A01EEA00AF0EE000A29EE201AE9
:103C2000DDED080AF6EE001A71EEE01ADDED060A87
:103C300071EEE00AF0EE40DA41EE20DA9DED1A0A6C
:103C400060EE000A9DED190A40EE000A10EE901A8F
:103C500008460AF073FECDE900019DED000B09F066
:103C60005DFF8DED020B9DED020B51EC100B0AF088
:103C7000B1F80FEE900AB0EE6DEA3FEE6E0AF0EE8C
:103C8000000A20EE200A8DED180A9DED0A0ADDEDEE
:103C9000050A30EE200AF0EE000A20EE200A8DED33
:103CA000170A9DED0B0ADDED080A70EE600A9DED26
:103CB000060A70EEC00A9DED040A30EE800A8DED12
:103CC000160AB0EE000A6FEE800A9DED060AB6EE07
:103CD000001A31EE401A9DED040A31EE400A20EE42
:103CE000800AF0EE4EDAF0EE000A6DEEA00A3FEE2A
:103CF0006E1A00EE810A8DED150AB0EE000A2FEE65
:103D0000801A9DED070ADDED090A30EE600A21EE0A
:103D1000000AF0EE4EDAF0EE000A6DEEA01ADDEDCC
:103D20000A0A9DED051A13E0DF59375F04070020EA
:103D300033330342F8000020FC0000200001002083
:103D40000401002014010020100100200024F44987
:103D500070EE810A01EEA00A8DED140AB0EE000AA1
:103D60002FEE800A7EEE8F0A20EE200AF0EE4EDA69
:103D7000F0EE000A2DEEA01ADDED080AF6EE001AAC
:103D800071EEE01ADDED060A71EEE00A01EE200A9E
:103D90008DED130A9DED160A6CEE000A9DED170AD3
:103DA0004CEEC00A9DED130A28EE801A9DED140A10
:103DB00009EE401A30EE810A8DED120A9DED180AC7
:103DC0006CEE800A9DED160A4DEE400A9DED150A37
:103DD00029EE001A9DED130A0AEE401A30EE810A10
:103DE0008DED110A9DED170A6DEE000A9DED180A82
:103DF0004CEE400A9DED140A2AEE001A9DED150ABC
:103E000008EEC01A30EE810A8DED100A9DED120AFF
:103E1000B5EEC00AF1EE10FA61D09DED110AB5EED3
:103E2000C00AF1EE10FA5AD09DED100AB5EEC00AA4
:103E3000F1EE10FA53D09DED120ADFEDFE0A60EEAE
:103E4000200AFD4890ED000A00EEA90A80ED000A64
:103E50009DED110ADFEDF70A60EE200AF74890EDBC
:103E6000000A00EEA90A80ED000A9DED100ADFEDC0
:103E7000F10A60EE200AF24890ED000A00EEA90A6D
:103E800080ED000A9DED120AB0EE001AF0EE6A0A0B
:103E900041EE000AE84890ED000A30EE800AF0EEAC
:103EA00040AA9DED110AB0EE001AF0EE4B0A41EE69
:103EB000000AE24890ED000A30EE800AB0EE40BA07
:103EC0009DED100AB0EE001AF0EE6B0A41EE000A0A
:103ED000DB4890ED000A30EE800AF0EE40BAD94897
:103EE00090ED000AB1EE400A20EE2A0AD648D0ED45
:103EF000000A00EECB0AD54890ED001AF0EE400A19
:103F000041EE6B0AD24890ED000A00EEA90A8DED51
:103F10000F0A90ED000A20EE2A0ACB48D0ED000AE5
:103F200000EEAB0AC94890ED001AF0EE400A41EEEF
:103F30004B0AC44890ED000A00EEA90A8DED0E0A66
:103F4000C34890ED000A20EE0B0ABE48D0ED000AEF
:103F500000EEEB0ABD4890ED001AF0EE400A41EE8B
:103F60002A0AB94890ED000A00EEA90A8DED0D0A63
:103F7000B74890ED000A20EE2B0AB248D0ED000AB7
:103F800000EE8B0AB04890ED001AF0EE400A41EEC8
:103F90006A0AAE4890ED000A00EEA90A8DED0C0AFF
:103FA000DDED0F0A20EEA01ADDED0E0A00EEA01ADC
:103FB000DDED0D0A00EEA01ADDED0C0A00EEA01AF0
:103FC000B0EE410AFFF7A6FCB0EE408A9DED0F0A65
:103FD00020EE080A9E4880ED000A9DED0E0A20EEB4
:103FE000080A984880ED000A9DED0D0A20EE080AA7
:103FF000954880ED000A9DED0C0A20EE080A9348D2
:1040000080ED000A1BB0BDEC108B00BD30B52DED6E
:104010000C8B87B005460C469FED8E0A8DED020A8B
:104020009FED8C0A8DED010A9FED8A0A8DED000A45
:104030002046FFF78BFC94ED050ADFED870A20EEA2
:10404000200ADFED860A80EE201AB0EE418A94ED58
:10405000040ADFED810A20EE200ADFED800A80EEFF
:10406000201AF0EE418A94ED030ADFED7B0A20EE80
:10407000200ADFED7A0A80EE201AB0EE419A94ED24
:10408000020AF0EE402A94ED010AB0EE402A94EDC7
:10409000000AF0EE401A9FED6F4ADFED6E3A9FED99
:1040A0006D3AB0EE481AF0EE680AB0EE490AFFF732
:1040B00081FC674890ED000A8DED030A614890EDA0
:1040C000000A8DED040A604890ED000A8DED050AA6
:1040D0005E4890ED000A8DED060A9DED050AF8EEAA
:1040E000000A20EE200ADDED050A20EE200ADDEDB3
:1040F000060AB0EE001A60EE810A9DED061A00EE87
:10410000C10AF7EE000A30EE200A10EE101A084637
:104110000AF014FC41EC1C0B9DED040AF0EE000AC1
:1041200020EE200ADDED050A20EE200ADDED030A6F
:10413000B0EE001A60EE810A9DED061A00EE810ACB
:1041400010EE101A08460AF0F9FB41EC1D0BB0EE18
:104150004C1AF0EE6C1AB0EE4D0AF0EE6D0A09F052
:10416000DBFBB0EE40BAF0EE60BA51EC1B0B09F08D
:1041700025FE41EC1A0B9FED3A0B53EC102B0AF085
:10418000E7F841EC190B9FED380B53EC102B09F0BD
:1041900007FF41EC180B09F01DFE00EE100A85ED3B
:1041A000000A9DED040AF8EE000A20EE200ADDED7B
:1041B000060A20EE200ADDED030AB0EE001A60EEDA
:1041C000810A9DED051A00EE810A10EE101A0846CC
:1041D0000AF0B4FB41EC1C0BB0EE4C0AF0EE6C0A9A
:1041E00009F07EF8B0EE40BAF0EE60BA51EC1B0B6D
:1041F00009F0E4FD41EC1A0B9FED190B53EC102B69
:104200000AF0A6F841EC190B9FED170B53EC102B9D
:1042100009F0C6FE41EC180B09F0DCFD00EE100AB7
:1042200085ED010A9DED040AF8EE000A20EE200A51
:104230001EE000000AD7233CEC000020F000002024
:10424000F4000020FC0000200001002004010020F8
:10425000F800002000000000DB0F4940000034435C
:10426000000000000080664000000060FB21094063
:10427000DDED040A20EE200ADDED050AB0EE001A9D
:1042800060EE810A9DED051A00EEC10AF7EE000A04
:1042900030EE200A10EE101A08460AF04FFB41ECEF
:1042A0001B0B9DED050AF0EE000A20EE200ADDED65
:1042B000060A20EE200ADDED030AB0EE001A60EED9
:1042C000810A9DED041A00EE810A10EE101A0846CC
:1042D0000AF034FB41EC1C0BB0EE4B1AF0EE6B1AFB
:1042E000B0EE4C0AF0EE6C0A09F016FBB0EE40AAF4
:1042F000F0EE60AA1FED260B53EC102B51EC1A0BBD
:104300000AF026F841EC190B1FED290B53EC102B8A
:1043100009F046FE41EC180B09F05CFD00EE100AB6
:1043200085ED020A07B0BDEC0C8B30BD10B58CB02A
:104330000446002009900A900B902421684607F05B
:1043400083FF694609A8FFF761FE9DED030A84ED2E
:10435000030A9DED040A84ED040A9DED050A84ED2F
:10436000050A9DED0A0A84ED060A9DED0B0A84ED0F
:10437000080A94ED070AD4ED050A9FED041A00EE31
:10438000810A84ED070A0CB010BD00006F12833A59
:104390001CB50121022001F004F94FF48070009057
:1043A00000208DF8040003208DF8050002208DF810
:1043B000070069461B4800F053FE1CBD08B51720D6
:1043C0008DF8000006208DF8010000208DF8020015
:1043D00001208DF80300684600F051FD08BD1CB5B2
:1043E0000121880301F035F90821012001F03DFA8F
:1043F0004FF48070009000208DF804000C208DF8A0
:10440000050001208DF80600684603F081FF1CBD01
:1044100010B500F024FCFFF7BBFFFFF7CFFFFFF75D
:10442000DEFF10BD0004024070B505460C460020BA
:10443000F949086005F07F00F849087008460078DF
:1044400000F0CBFCF5480470007800F0C6FC0120B9
:10445000F349C1F89802002070BD10B50446002051
:10446000ED49086044F08000EE4908700846007885
:1044700000F0B3FC44F0800000F0AFFCEA490870A3
:104480000120E749C1F89802E748007810BD10B54F
:10449000044644F08000E54908700846007800F0C2
:1044A0009CFCE34908700846007810BD70B50446CE
:1044B0000D4600212A20FFF7B7FF0220FFF7A7F9DA
:1044C00021462920FFF7B0FF0220FFF7A0F9294677
:1044D0006420FFF7A9FF0220FFF799F981212A2024
:1044E000FFF7A2FF0A20FFF792F970BD70B50446EE
:1044F00021463220FFF798FF0A20FFF788F9802134
:104500003420FFF791FF0A20FFF781F93520FFF7EC
:10451000A4FF054600213420FFF786FF0A20FFF79D
:1045200076F9284670BD70B504460E4615462146FC
:104530002820FFF779FF0220FFF769F90A212920D7
:10454000FFF772FF0220FFF762F901216420FFF7F5
:104550006BFF0220FFF75BF944F080012520FFF795
:1045600063FF0220FFF753F931462620FFF75CFF77
:104570000220FFF74CF903213420FFF755FF0220FA
:10458000FFF745F903216720FFF74EFF0220FFF7F1
:104590003EF981212A20FFF747FF0620FFF737F970
:1045A00045F080012720FFF73FFF0720FFF72FF995
:1045B00070BD10B530216A20FFF736FF0A20FFF7E3
:1045C00026F90D212420FFF72FFF0A20FFF71FF9FE
:1045D0000E212820FFF728FF0A20FFF718F98E2167
:1045E0003120FFF721FF0A20FFF711F901210B20ED
:1045F000FFF75CFF0020FFF779FF102801D00120B2
:1046000010BD0A20FFF703F900210A20FFF74EFF33
:104610000A20FFF76BFF08B10220F1E70A20FFF73D
:10462000F6F800210B20FFF741FF0B20FFF75EFF9C
:1046300008B10320E4E70A20FFF7E9F8242141202C
:10464000FFF734FF4120FFF751FF242801D0042059
:10465000D6E70A20FFF7DBF8C0214220FFF726FF4C
:104660004220FFF743FFC02801D00520C8E70A20F9
:10467000FFF7CDF800212A20FFF7D6FE0A20FFF72A
:10468000C6F800213420FFF7CFFE0A20FFF7BFF85D
:10469000062203210E20FFF746FF6420FFF7B7F83C
:1046A0000020ADE710B50446E006010E1C20FFF720
:1046B000BBFE10BD10B50446E006010E1B20FFF73F
:1046C000B3FE10BD2DE9F04304460D46DDE9076752
:1046D00000200021012041E0DFF858C13CF81080A3
:1046E000A0F1010CDFF84C9129F81C8009F1160C9F
:1046F0003CF81090A0F1010CDFF8388108F11608A1
:1047000028F81C9008F1160C3CF81090A0F1010C50
:1047100008F1160828F81C9008F1160C3CF81090C7
:10472000A0F1010C08F1160828F81C9008F1160CED
:104730003CF81090A0F1010C08F1160828F81C9024
:1047400008F1160C3CF81090A0F1010C08F11608C5
:1047500028F81C9000F1010C0CF0FF000A28BBDBCC
:10476000DFF8D0C0ACF81240ACF82850ACF83E20CE
:10477000ACF85430ACF86A60ACF88070002008E007
:10478000DFF8B0C03CF910C0614400F1010C0CF03E
:10479000FF000A28F4DB4FF00A0C91FBFCFC0FFA37
:1047A0008CFCDFF89080A8F814C0002100200AE0FB
:1047B000DFF880C00CF1160C3CF910C0614400F128
:1047C000010C0CF0FF000A28F2DB4FF00A0C91FB01
:1047D000FCFC0FFA8CF8DFF85CC0ACF82A800021F2
:1047E00000200AE0DFF84CC00CF12C0C3CF910C0A2
:1047F000614400F1010C0CF0FF000A28F2DB4FF0DD
:104800000A0C91FBFCFC0FFA8CF8DFF828C0ACF81E
:1048100040800021002018E098824242520100208E
:104820000080424254010020530100205601002024
:1048300055010020CA070020DFF844C43CF910C02D
:10484000614400F1010C0CF0FF000A28F4DB4FF08A
:104850000A0C91FBFCFC0FFA8CF8DFF824C4ACF1D5
:10486000420CACF85680002100200AE0DFF810C4AA
:104870000CF1160C3CF910C0614400F1010C0CF075
:10488000FF000A28F2DB4FF00A0C91FBFCFC0FFA48
:104890008CF8DFF8ECC3ACF1420CACF86C80002172
:1048A00000200AE0DFF8D8C30CF12C0C3CF910C052
:1048B000614400F1010C0CF0FF000A28F2DB4FF01C
:1048C0000A0C91FBFCFC0FFA8CF8DFF8B4C3ACF1D6
:1048D000420CACF88280BDE8F0832DE9F04786B049
:1048E00005460E4617469846DDE90E9A109C0020B4
:1048F000E4490860BB2000F070FA3B20FFF7C7FDD9
:104900008DF808003C20FFF7C2FD8DF809009DF8E6
:1049100009009DF8081040EA012000B2DA49088039
:104920003D20FFF7B4FD8DF80A003E20FFF7AFFDF4
:104930008DF80B009DF80B009DF80A1040EA01204D
:1049400000B2D24908803F20FFF7A1FD8DF80C008E
:104950004020FFF79CFD8DF80D009DF80D009DF89F
:104960000C1040EA012000B2C94908804120FFF73D
:104970008EFD8DF80E004220FFF789FD8DF80F00A7
:104980009DF80F009DF80E1040EA012000B2C149C9
:10499000C8804320FFF77BFD8DF810004420FFF70F
:1049A00076FD8DF811009DF81100BB490989401A68
:1049B0009DF8101040EA012000B2B8490880452057
:1049C000FFF765FD8DF812004620FFF760FD8DF8BA
:1049D00013009DF81300B0494989401A9DF8121040
:1049E00040EA012000B2AE4908804720FFF74FFDA2
:1049F0008DF814004820FFF74AFD8DF815009DF84A
:104A00001500A5498989401A9DF8141040EA012033
:104A100000B2A44908800120A349C1F89802A14826
:104A2000B0F900009E49B1F90010CDE900109B4893
:104A3000B0F900309648B0F900209448B0F9001061
:104A40009148B0F90000FFF73DFE8D484238808A5A
:104A500028808B484238408D308089484238B0F8F1
:104A60004000388086484238B0F85600A18C401A81
:104A700000B2A8F8000082484238B0F86C00218DDE
:104A8000401A00B2A9F800007D484238B0F8820010
:104A9000A18D401A00B2AAF8000006B0BDE8F08768
:104AA00070B5DDE90445764E423EB68A0680744E06
:104AB000423E768D0E80724E423EB6F840601680C1
:104AC0006F4E423EB6F85660103E36B21E806C4EB7
:104AD000423EB6F86C60761D36B22680684E423E85
:104AE000B6F88260223636B22E8070BD2DE9F04FC6
:104AF00087B00446002500260027A846A946AA46F6
:104B0000AB4600BF11E06420FEF75FFE674A0DF17F
:104B10001A0006A9031FCDE90102009105AA891F09
:104B200004A8FFF7DAFE681CC5B2322DEBDB0025C6
:104B300023E0C820FEF749FE5C4A0DF11A0006A9E1
:104B4000031FCDE90102009105AA891F04A8FFF700
:104B5000C4FEBDF910008144BDF912008244BDF9C4
:104B600014008344BDF916000644BDF9180007443B
:104B7000BDF91A008044681CC5B2642DD9DB6420DD
:104B800096FBF0F06062642097FBF0F0A062642076
:104B900098FBF0F0E06207B0BDE8F08F10B5024678
:104BA00000210AE0424C34F91140944203D1404CB8
:104BB00034F9113003E04C1CE1B20829F2DB00BFEC
:104BC000D41A20B210BD10B586B000241422394981
:104BD00001A807F0FFFA6420FEF719FE00F0F4F8D0
:104BE0006420FEF714FE7520FFF737FC702805D00F
:104BF00031A007F0ADF9FF2006B010BD00240DE094
:104C000001AA02EB4402517801AA12F81400FFF73E
:104C10000BFC0120FEF7FBFD601CC4B20A2CEFDB8D
:104C20000020E9E70EB50121082000F001FD4FF05A
:104C3000FF3001905920ADF800000020ADF80800C9
:104C4000ADF8020001211F4802F056F869461D48E0
:104C500001F0E7FF01211B4802F06CF80EBD10B512
:104C600002E0C820FEF7D3FDFFF7ADFFFF28F8D024
:104C7000FFF7D8FF10BD13482430006870470000CC
:104C80000C080020988242421E01002020010020D2
:104C90002201002096070020B007002024010020F8
:104CA0002601002028010020008042420407002045
:104CB0002A01002038EB00086572726F72203141C2
:104CC0000D0A0000000C00401CB50121202000F05E
:104CD00068FC4FF46070009002208DF80400002002
:104CE0008DF8060003208DF8050000208DF80700E0
:104CF00069464E4800F0B4F94020009001208DF83C
:104D0000040000208DF8060003208DF80500002027
:104D10008DF807006946454800F0A2F905220721F1
:104D2000424800F028FA05220921404800F023FA01
:104D3000052208213D4800F01EFA1CBD00B585B0D3
:104D40000121080500F085FC0121080500F0D6FCD2
:104D500000214FF4801000F0D1FC0020ADF80000DD
:104D60004FF48270ADF802000020ADF80400ADF8F9
:104D70000600ADF808004FF40070ADF80A003020CE
:104D8000ADF80C000020ADF80E000A20ADF81000C0
:104D90006946274802F036FD0121254802F02CFE25
:104DA00005B000BD10B50446214800884FF6C77114
:104DB00008401F49088008460088204308800121D8
:104DC0001B4802F019FE10BD10B5FFF77DFFFFF77D
:104DD000B5FF3020FFF7E6FF10BD70B50546012690
:104DE000002422E0012E0FD10221114802F082FEA0
:104DF00050B1002401E0601CC4B2C82CFBDB294682
:104E00000B4802F075FE00267EB90121084802F029
:104E100071FE50B1002401E0601CC4B2C82CFBDB61
:104E2000034802F062FEC0B270BDDBE7001402402E
:104E3000005001400948804709480047FEE7FEE767
:104E4000FEE7FEE7FEE7FEE7FEE7FEE7FEE7FEE73A
:104E500004480549054A064B704700004907000809
:104E6000AD01000820360120203C0120203801201F
:104E70002038012032490143324A1160704770B531
:104E8000002100230F22C4781CB32E4C246804F4A4
:104E9000E064C4F5E064C4F30721C1F10404E3B2A3
:104EA0000A4144789C40E1B28478144021430C07C5
:104EB000210E254C05786155047804F01F05012466
:104EC000AC4005786D11AD0005F1E025C5F8004155
:104ED00009E0047804F01F050124AC401B4D06785E
:104EE000761145F8264070BD194A0A400243154B19
:104EF0001B1F1A60704739B1124A121D1268024313
:104F0000104B1B1D1A6006E00E4A121D12688243E8
:104F10000C4B1B1D1A607047042808D14FF0E0218C
:104F2000096941F004014FF0E022116107E04FF000
:104F3000E021096921F004014FF0E022116170477E
:104F40000000FA050CED00E000E400E080E100E084
:104F500080FFFF1F10B504469848844208D1012104
:104F6000084600F087FB0021012000F083FB76E07B
:104F70009348844208D10121022000F07BFB0021EC
:104F8000022000F077FB6AE08E48844208D10121BC
:104F9000042000F06FFB0021042000F06BFB5EE0BA
:104FA0008948844208D10121082000F063FB0021D8
:104FB000082000F05FFB52E08448844208D10121C0
:104FC000102000F057FB0021102000F053FB46E0BA
:104FD0007F48844208D10121202000F04BFB0021B2
:104FE000202000F047FB3AE07A48844208D10121B2
:104FF000402000F03FFB0021402000F03BFB2EE072
:105000007548844208D10121802000F033FB002143
:10501000802000F02FFB22E07048844208D101215B
:10502000801500F027FB0021A01500F023FB16E0FF
:105030006B48844208D10121401500F01BFB002180
:10504000601500F017FB0AE06648844207D1012191
:10505000001500F00FFB0021201500F00BFB10BD28
:10506000F0B50A4600210023002400BF3DE00125E1
:1050700005FA01F3156805EA03049C4234D105687A
:105080004F000326BE40B543056015794E00B5407C
:105090000668354305601579012D02D01579022D7A
:1050A00016D185684F000326BE40B543856055790B
:1050B0004E00B540866835438560456801268E40C0
:1050C000B5434560456896798E40B6B23543456034
:1050D000C5684F000326BE40B543C560D5794E0074
:1050E000B540C6683543C560491C1029BFD3F0BD23
:1050F0004FF6FF7101600021017141718171C17131
:10510000704708B54FF480320092009A0A4300922B
:10511000009AC261C161009AC261C2690092C2690B
:10512000009208BD0246002013690B400BB101201C
:1051300000E0002070470146086980B270470246CF
:10514000002053690B400BB1012000E000207047A4
:105150000146486980B270470183704741837047B8
:105160000AB1018300E041837047416170474269A1
:105170004A4042617047F0B5002300244D07ED0E10
:1051800002FA05F3CE1000F1200555F826504E071F
:10519000F70E0F26BE40B543CF1000F1200646F8AB
:1051A0002750CE1000F1200555F8265045EA03049B
:1051B000CE1000F1200545F82640F0BD0000024069
:1051C0000004024000080240000C024000100240AF
:1051D0000014024000180240001C0240002002405F
:1051E0000024024000280240F648006840F0010018
:1051F000F44908600020F34908310860F14800686C
:10520000F1490840EF490860F048091D0860F0487E
:10521000EC4984310860ED481038091D0860E94800
:10522000006820F48020E74908600020E5490C313F
:105230000860E4498C31086070470121E14A921C02
:10524000117011460870704710B501460022002306
:1052500000204A11012A02D1DA4C236808E0022A10
:1052600003D1D84C7034236802E0D64C74342368E0
:1052700001F01F02012494401C400CB1012000E009
:10528000002010BD38B5002000900024002500BF8C
:105290003120FFF7D9FF05460098401C0090009888
:1052A000B0F5A04F01D0002DF2D03120FFF7CCFF98
:1052B00008B1012400E00024204638BD014600204A
:1052C000C04A106820F0F80040EAC1001060704742
:1052D000C049086070470021BA4A703211701170DD
:1052E000012802D004280AD104E00121B54A703215
:1052F000117005E00521B34A7032117000E000BF63
:1053000000BF7047B4490860704770B5049C41EA1B
:1053100082150126C6EB530645EA0645054345EAD4
:105320000465A84E361D356070BDAA4908667047F1
:1053300010B5830143EA016343EA0273A14C84344C
:10534000236010BDA3498866704710B5830143EA06
:10535000016343EA02739B4C8834236010BD9D496E
:10536000086770479B49C864704702460020954B08
:105370000833186820F0EC6042EA01031843914BAF
:10538000083318607047024600208E4B08331868B7
:1053900020F0784042EA010318438A4B0833186032
:1053A000704701460020874A0832106820F0030049
:1053B00008431060704783480830006800F00C0014
:1053C0007047014600207F4A0832106820F0F00044
:1053D000084310607047014600207A4A083210687E
:1053E00020F4E05008431060704701460020754AE1
:1053F0000832106820F4604040EAC1001060704735
:10540000F0B50021002200240225002602236D4F62
:1054100008373F6807F00C0121B1042905D008299D
:1054200037D105E06D4F076036E06D4F076033E020
:10543000644F3F1D3F68C7F38056624F3F1D3F6872
:1054400007F03F036EB1664FB7FBF3F7DFF874C1A7
:105450000CF1040CDCF800C0CCF3881C07FB0CF446
:105460000CE05E4FB7FBF3F7DFF858C10CF1040C0A
:10547000DCF800C0CCF3881C07FB0CF4514F3F1D37
:105480003F68C7F301477F1C7D00B4FBF5F7076059
:1054900002E0524F076000BF00BF4A4F08373F6825
:1054A00007F0F00109094F4F7A5C0768D740476061
:1054B000444F08373F6807F4E051890A494F7A5C46
:1054C0004768D74087603F4F08373F6807F460411F
:1054D000490B444F7A5C4768D740C760F0BD002154
:1054E00000F44072B2F5407F0AD1364A08321168A2
:1054F00021F4F8113C4A02401143324A083211604B
:10550000304A70321268C0F30B031A432D4B7033CC
:105510001A60704730494439086070472E49403955
:105520000860704731490860704701460020254AED
:105530008C32106820F01F004A1E1043214A8C3222
:1055400010607047014600201E4A8C32106820F41B
:10555000F8504A1E40EA02201A4A8C321060704706
:1055600001460020174A8C32106820F4401008438E
:105570001060704701460020124A8C32106820F4F7
:105580004000084310607047014600200D4A8C32ED
:10559000106820F4403008431060704714490860D8
:1055A000704739B1074A303212680243054B303335
:1055B0001A6006E0034A303212688243014B3033EE
:1055C0001A60704700380240FFFFF6EA10300024EE
:1055D0000030002000004742800E47420024F400C3
:1055E000001BB70057010020FFFCFF0F5C01474282
:1055F000E011474229B1934A12680243914B1A6065
:1056000004E0904A126882438E4B1A60704739B1A9
:105610008C4A121D126802438A4B1B1D1A6006E059
:10562000884A121D12688243864B1B1D1A60704700
:1056300039B1844A0C3212680243824B0C331A602F
:1056400006E0804A0C32126882437E4B0C331A60AB
:10565000704739B17B4A103212680243794B1033DC
:105660001A6006E0774A103212688243754B103395
:105670001A60704739B1734A243A12680243714B79
:10568000243B1A6006E06F4A243A126882436D4B4D
:10569000243B1A60704739B16A4A203A12680243C3
:1056A000684B203B1A6006E0664A203A1268824343
:1056B000644B203B1A60704739B1624A1C3A126849
:1056C0000243604B1C3B1A6006E05E4A1C3A1268BB
:1056D00082435C4B1C3B1A60704739B1594A143AFB
:1056E00012680243574B143B1A6006E0554A143ABD
:1056F00012688243534B143B1A60704739B1514AC8
:10570000103A126802434F4B103B1A6006E04D4AB4
:10571000103A126882434B4B103B1A60704739B104
:10572000484A1C3212680243464B1C331A6006E09A
:10573000444A1C3212688243424B1C331A60704741
:1057400039B1404A2032126802433E4B20331A607E
:1057500006E03C4A2032126882433A4B20331A60FA
:10576000704739B1374A243212680243354B24332B
:105770001A6006E0334A243212688243314B2433E4
:105780001A60704739B12F4A2C32126802432D4BF0
:105790002C331A6006E02B4A2C3212688243294BC4
:1057A0002C331A60704739B1264A303212680243EE
:1057B000244B30331A6006E0224A303212688243AA
:1057C000204B30331A607047012808D11D493C3105
:1057D000096841F008011B4A3C32116007E0194991
:1057E0003C31096821F00801164A3C3211607047CB
:1057F00039B1144A273A12780243124B273B1A70E8
:1058000006E0104A273A127882430E4B273B1A7063
:1058100070470C484030006840F0807009494031C2
:105820000860704701460020064A283A12680A407C
:105830000AB1012000E000207047024926390870B3
:10584000704700003438024010B501218803FFF78B
:1058500055FF00214FF48040FFF750FF10BD1C4959
:10586000086070471B490862704730B500228B07FB
:105870001C0F0F2303FA04F2154B08338C1053F856
:1058800024309343124C08348D1044F825302346BD
:105890008C1053F824308C07240F00FA04F42343AF
:1058A0000B4C08348D1044F8253030BD0949DC31EB
:1058B000086070470849086070470020044920319B
:1058C000096801F4807109B1012000E000207047EF
:1058D00000380140000027420004274210B504466A
:1058E000FA48844208D101211020FFF707FF002168
:1058F0001020FFF703FF57E0F548844209D101214A
:105900004804FFF7EAFE00214FF40030FFF7E5FE00
:105910004AE0F048844209D101218804FFF7DDFE06
:1059200000214FF48020FFF7D8FE3DE0EA48844292
:1059300009D10121C804FFF7D0FE00214FF4002057
:10594000FFF7CBFE30E0E548844209D1012108058C
:10595000FFF7C3FE00214FF48010FFF7BEFE23E0E7
:10596000DF48844208D101212020FFF7C7FE002133
:105970002020FFF7C3FE17E0DA48844209D1012155
:105980008807FFF7AAFE00214FF08040FFF7A5FE31
:105990000AE0D548844207D101214005FFF79DFE6A
:1059A00000216005FFF799FE10BD2DE9FF47054670
:1059B0000E460024A14600BFA046B08900B100BF3A
:1059C0002C8A24F44054F08804432C82AC8941F2A0
:1059D0000C608443B08831890843718908430443CB
:1059E000AC81AC8A24F44074B0890443AC8268462C
:1059F000FFF706FDB548854202D0B948854202D17D
:105A0000DDF80C9001E0DDF80890A88900F4004072
:105A100040B109EBC90000EB091031684900B0FB47
:105A2000F1F707E009EBC90000EB091031688900C4
:105A3000B0FBF1F76420B7FBF0F00401200964210A
:105A400001FB1078A88900F4004040B1322000EB3F
:105A5000C800B0FBF1F000F00700044308E032207A
:105A600000EB08106421B0FBF1F000F00F000443DC
:105A70002C81BDE8FF874FF4165101600021818021
:105A8000C18001810C21418100218181704710B5C5
:105A900002460020108A20F470600B884C88234353
:105AA0008C882343CC8823431843108210BD0021E7
:105AB000018041808180C180704721B1828942F498
:105AC0000052828104E082894DF6FF731A40828180
:105AD0007047028B02F47F420283028B0A430283E7
